{
  "contractName": "DNFT",
  "abi": [
    {
      "inputs": [],
      "stateMutability": "nonpayable",
      "type": "constructor"
    },
    {
      "anonymous": false,
      "inputs": [
        {
          "indexed": true,
          "internalType": "address",
          "name": "owner",
          "type": "address"
        },
        {
          "indexed": true,
          "internalType": "address",
          "name": "approved",
          "type": "address"
        },
        {
          "indexed": true,
          "internalType": "uint256",
          "name": "tokenId",
          "type": "uint256"
        }
      ],
      "name": "Approval",
      "type": "event"
    },
    {
      "anonymous": false,
      "inputs": [
        {
          "indexed": true,
          "internalType": "address",
          "name": "owner",
          "type": "address"
        },
        {
          "indexed": true,
          "internalType": "address",
          "name": "operator",
          "type": "address"
        },
        {
          "indexed": false,
          "internalType": "bool",
          "name": "approved",
          "type": "bool"
        }
      ],
      "name": "ApprovalForAll",
      "type": "event"
    },
    {
      "anonymous": false,
      "inputs": [
        {
          "indexed": true,
          "internalType": "address",
          "name": "from",
          "type": "address"
        },
        {
          "indexed": true,
          "internalType": "address",
          "name": "to",
          "type": "address"
        },
        {
          "indexed": true,
          "internalType": "uint256",
          "name": "tokenId",
          "type": "uint256"
        }
      ],
      "name": "Transfer",
      "type": "event"
    },
    {
      "inputs": [
        {
          "internalType": "address",
          "name": "to",
          "type": "address"
        },
        {
          "internalType": "uint256",
          "name": "tokenId",
          "type": "uint256"
        }
      ],
      "name": "approve",
      "outputs": [],
      "stateMutability": "nonpayable",
      "type": "function"
    },
    {
      "inputs": [
        {
          "internalType": "address",
          "name": "owner",
          "type": "address"
        }
      ],
      "name": "balanceOf",
      "outputs": [
        {
          "internalType": "uint256",
          "name": "",
          "type": "uint256"
        }
      ],
      "stateMutability": "view",
      "type": "function",
      "constant": true
    },
    {
      "inputs": [],
      "name": "baseURI",
      "outputs": [
        {
          "internalType": "string",
          "name": "",
          "type": "string"
        }
      ],
      "stateMutability": "view",
      "type": "function",
      "constant": true
    },
    {
      "inputs": [],
      "name": "divisibility",
      "outputs": [
        {
          "internalType": "uint256",
          "name": "",
          "type": "uint256"
        }
      ],
      "stateMutability": "view",
      "type": "function",
      "constant": true
    },
    {
      "inputs": [
        {
          "internalType": "uint256",
          "name": "tokenId",
          "type": "uint256"
        }
      ],
      "name": "getApproved",
      "outputs": [
        {
          "internalType": "address",
          "name": "",
          "type": "address"
        }
      ],
      "stateMutability": "view",
      "type": "function",
      "constant": true
    },
    {
      "inputs": [
        {
          "internalType": "address",
          "name": "owner",
          "type": "address"
        },
        {
          "internalType": "address",
          "name": "operator",
          "type": "address"
        }
      ],
      "name": "isApprovedForAll",
      "outputs": [
        {
          "internalType": "bool",
          "name": "",
          "type": "bool"
        }
      ],
      "stateMutability": "view",
      "type": "function",
      "constant": true
    },
    {
      "inputs": [
        {
          "internalType": "uint256",
          "name": "",
          "type": "uint256"
        }
      ],
      "name": "locations",
      "outputs": [
        {
          "internalType": "string",
          "name": "",
          "type": "string"
        }
      ],
      "stateMutability": "view",
      "type": "function",
      "constant": true
    },
    {
      "inputs": [],
      "name": "name",
      "outputs": [
        {
          "internalType": "string",
          "name": "",
          "type": "string"
        }
      ],
      "stateMutability": "view",
      "type": "function",
      "constant": true
    },
    {
      "inputs": [
        {
          "internalType": "uint256",
          "name": "tokenId",
          "type": "uint256"
        }
      ],
      "name": "ownerOf",
      "outputs": [
        {
          "internalType": "address",
          "name": "",
          "type": "address"
        }
      ],
      "stateMutability": "view",
      "type": "function",
      "constant": true
    },
    {
      "inputs": [
        {
          "internalType": "address",
          "name": "from",
          "type": "address"
        },
        {
          "internalType": "address",
          "name": "to",
          "type": "address"
        },
        {
          "internalType": "uint256",
          "name": "tokenId",
          "type": "uint256"
        }
      ],
      "name": "safeTransferFrom",
      "outputs": [],
      "stateMutability": "nonpayable",
      "type": "function"
    },
    {
      "inputs": [
        {
          "internalType": "address",
          "name": "from",
          "type": "address"
        },
        {
          "internalType": "address",
          "name": "to",
          "type": "address"
        },
        {
          "internalType": "uint256",
          "name": "tokenId",
          "type": "uint256"
        },
        {
          "internalType": "bytes",
          "name": "_data",
          "type": "bytes"
        }
      ],
      "name": "safeTransferFrom",
      "outputs": [],
      "stateMutability": "nonpayable",
      "type": "function"
    },
    {
      "inputs": [
        {
          "internalType": "address",
          "name": "operator",
          "type": "address"
        },
        {
          "internalType": "bool",
          "name": "approved",
          "type": "bool"
        }
      ],
      "name": "setApprovalForAll",
      "outputs": [],
      "stateMutability": "nonpayable",
      "type": "function"
    },
    {
      "inputs": [
        {
          "internalType": "bytes4",
          "name": "interfaceId",
          "type": "bytes4"
        }
      ],
      "name": "supportsInterface",
      "outputs": [
        {
          "internalType": "bool",
          "name": "",
          "type": "bool"
        }
      ],
      "stateMutability": "view",
      "type": "function",
      "constant": true
    },
    {
      "inputs": [],
      "name": "symbol",
      "outputs": [
        {
          "internalType": "string",
          "name": "",
          "type": "string"
        }
      ],
      "stateMutability": "view",
      "type": "function",
      "constant": true
    },
    {
      "inputs": [
        {
          "internalType": "uint256",
          "name": "index",
          "type": "uint256"
        }
      ],
      "name": "tokenByIndex",
      "outputs": [
        {
          "internalType": "uint256",
          "name": "",
          "type": "uint256"
        }
      ],
      "stateMutability": "view",
      "type": "function",
      "constant": true
    },
    {
      "inputs": [
        {
          "internalType": "uint256",
          "name": "",
          "type": "uint256"
        }
      ],
      "name": "tokenIds",
      "outputs": [
        {
          "internalType": "uint256",
          "name": "",
          "type": "uint256"
        }
      ],
      "stateMutability": "view",
      "type": "function",
      "constant": true
    },
    {
      "inputs": [
        {
          "internalType": "address",
          "name": "owner",
          "type": "address"
        },
        {
          "internalType": "uint256",
          "name": "index",
          "type": "uint256"
        }
      ],
      "name": "tokenOfOwnerByIndex",
      "outputs": [
        {
          "internalType": "uint256",
          "name": "",
          "type": "uint256"
        }
      ],
      "stateMutability": "view",
      "type": "function",
      "constant": true
    },
    {
      "inputs": [
        {
          "internalType": "uint256",
          "name": "tokenId",
          "type": "uint256"
        }
      ],
      "name": "tokenURI",
      "outputs": [
        {
          "internalType": "string",
          "name": "",
          "type": "string"
        }
      ],
      "stateMutability": "view",
      "type": "function",
      "constant": true
    },
    {
      "inputs": [],
      "name": "totalS",
      "outputs": [
        {
          "internalType": "uint256",
          "name": "",
          "type": "uint256"
        }
      ],
      "stateMutability": "view",
      "type": "function",
      "constant": true
    },
    {
      "inputs": [],
      "name": "totalSupply",
      "outputs": [
        {
          "internalType": "uint256",
          "name": "",
          "type": "uint256"
        }
      ],
      "stateMutability": "view",
      "type": "function",
      "constant": true
    },
    {
      "inputs": [
        {
          "internalType": "address",
          "name": "from",
          "type": "address"
        },
        {
          "internalType": "address",
          "name": "to",
          "type": "address"
        },
        {
          "internalType": "uint256",
          "name": "tokenId",
          "type": "uint256"
        }
      ],
      "name": "transferFrom",
      "outputs": [],
      "stateMutability": "nonpayable",
      "type": "function"
    },
    {
      "inputs": [
        {
          "internalType": "address",
          "name": "_owner",
          "type": "address"
        },
        {
          "internalType": "uint256",
          "name": "_tokenId",
          "type": "uint256"
        }
      ],
      "name": "unitsOwnedOfAToken",
      "outputs": [
        {
          "internalType": "uint256",
          "name": "_balance",
          "type": "uint256"
        }
      ],
      "stateMutability": "view",
      "type": "function",
      "constant": true
    },
    {
      "inputs": [
        {
          "internalType": "string",
          "name": "_location",
          "type": "string"
        }
      ],
      "name": "mint",
      "outputs": [],
      "stateMutability": "nonpayable",
      "type": "function"
    },
    {
      "inputs": [
        {
          "internalType": "address",
          "name": "_to",
          "type": "address"
        },
        {
          "internalType": "uint256",
          "name": "_tokenId",
          "type": "uint256"
        },
        {
          "internalType": "uint256",
          "name": "_units",
          "type": "uint256"
        }
      ],
      "name": "transfer",
      "outputs": [],
      "stateMutability": "nonpayable",
      "type": "function"
    },
    {
      "inputs": [
        {
          "internalType": "uint256",
          "name": "_tokenId",
          "type": "uint256"
        }
      ],
      "name": "burn",
      "outputs": [],
      "stateMutability": "nonpayable",
      "type": "function"
    },
    {
      "inputs": [],
      "name": "allLocations",
      "outputs": [
        {
          "internalType": "string[]",
          "name": "locs",
          "type": "string[]"
        }
      ],
      "stateMutability": "nonpayable",
      "type": "function"
    },
    {
      "inputs": [],
      "name": "allTokenIds",
      "outputs": [
        {
          "internalType": "uint256[]",
          "name": "tokens",
          "type": "uint256[]"
        }
      ],
      "stateMutability": "nonpayable",
      "type": "function"
    },
    {
      "inputs": [
        {
          "internalType": "address",
          "name": "_user",
          "type": "address"
        },
        {
          "internalType": "uint256",
          "name": "_tokenId",
          "type": "uint256"
        }
      ],
      "name": "majorityOwner",
      "outputs": [
        {
          "internalType": "bool",
          "name": "maj",
          "type": "bool"
        }
      ],
      "stateMutability": "view",
      "type": "function",
      "constant": true
    },
    {
      "inputs": [
        {
          "internalType": "address",
          "name": "_user",
          "type": "address"
        }
      ],
      "name": "allOwnerShares",
      "outputs": [
        {
          "internalType": "uint256[]",
          "name": "tokens",
          "type": "uint256[]"
        },
        {
          "internalType": "uint256[]",
          "name": "shares",
          "type": "uint256[]"
        }
      ],
      "stateMutability": "nonpayable",
      "type": "function"
    },
    {
      "inputs": [
        {
          "internalType": "address",
          "name": "_user",
          "type": "address"
        },
        {
          "internalType": "uint256",
          "name": "_tokenId",
          "type": "uint256"
        }
      ],
      "name": "ownerSharesforToken",
      "outputs": [
        {
          "internalType": "uint256",
          "name": "amountOfShares",
          "type": "uint256"
        }
      ],
      "stateMutability": "view",
      "type": "function",
      "constant": true
    }
  ],
  "bytecode": "0x608060405260646013553480156200001657600080fd5b506040518060400160405280600a81526020017f444e465420546f6b656e000000000000000000000000000000000000000000008152506040518060400160405280600681526020017f53594d424f4c00000000000000000000000000000000000000000000000000008152506200009b6301ffc9a760e01b6200011d60201b60201c565b8160069080519060200190620000b3929190620001f5565b508060079080519060200190620000cc929190620001f5565b50620000e56380ac58cd60e01b6200011d60201b60201c565b620000fd635b5e139f60e01b6200011d60201b60201c565b6200011563780e9d6360e01b6200011d60201b60201c565b505062000319565b63ffffffff60e01b817bffffffffffffffffffffffffffffffffffffffffffffffffffffffff1916141562000189576040517f08c379a00000000000000000000000000000000000000000000000000000000081526004016200018090620002e6565b60405180910390fd5b6001600080837bffffffffffffffffffffffffffffffffffffffffffffffffffffffff19167bffffffffffffffffffffffffffffffffffffffffffffffffffffffff1916815260200190815260200160002060006101000a81548160ff02191690831515021790555050565b828054600181600116156101000203166002900490600052602060002090601f016020900481019282601f106200023857805160ff191683800117855562000269565b8280016001018555821562000269579182015b82811115620002685782518255916020019190600101906200024b565b5b5090506200027891906200027c565b5090565b620002a191905b808211156200029d57600081600090555060010162000283565b5090565b90565b6000620002b3601c8362000308565b91507f4552433136353a20696e76616c696420696e74657266616365206964000000006000830152602082019050919050565b600060208201905081810360008301526200030181620002a4565b9050919050565b600082825260208201905092915050565b61412b80620003296000396000f3fe608060405234801561001057600080fd5b50600436106101da5760003560e01c806370a0823111610104578063b88d4fde116100a2578063d85d3d2711610071578063d85d3d27146105b5578063de435113146105d1578063e7619fad14610602578063e985e9c514610620576101da565b8063b88d4fde14610509578063b9e0db3514610525578063c87b56dd14610555578063d58778d614610585576101da565b80639abeb190116100de5780639abeb1901461046f5780639aeab3331461049f578063a22cb465146104bd578063aa30da79146104d9576101da565b806370a08231146104035780638004ace81461043357806395d89b4114610451576101da565b80632f745c591161017c5780634f6ccce71161014b5780634f6ccce7146103555780635c680893146103855780636352211e146103b55780636c0360eb146103e5576101da565b80632f745c59146102cf5780633286e82b146102ff57806342842e0e1461031d57806342966c6814610339576101da565b8063095bcdb6116101b8578063095bcdb61461025d578063095ea7b31461027957806318160ddd1461029557806323b872dd146102b3576101da565b806301ffc9a7146101df57806306fdde031461020f578063081812fc1461022d575b600080fd5b6101f960048036038101906101f491906131ae565b610650565b6040516102069190613bf4565b60405180910390f35b6102176106b7565b6040516102249190613c0f565b60405180910390f35b61024760048036038101906102429190613241565b610759565b6040516102549190613b12565b60405180910390f35b6102776004803603810190610272919061315f565b6107de565b005b610293600480360381019061028e9190613123565b61090c565b005b61029d610a24565b6040516102aa9190613e11565b60405180910390f35b6102cd60048036038101906102c8919061301d565b610a35565b005b6102e960048036038101906102e49190613123565b610a95565b6040516102f69190613e11565b60405180910390f35b610307610af0565b6040516103149190613b79565b60405180910390f35b6103376004803603810190610332919061301d565b610cab565b005b610353600480360381019061034e9190613241565b610ccb565b005b61036f600480360381019061036a9190613241565b610e0d565b60405161037c9190613e11565b60405180910390f35b61039f600480360381019061039a9190613123565b610e30565b6040516103ac9190613e11565b60405180910390f35b6103cf60048036038101906103ca9190613241565b610e8b565b6040516103dc9190613b12565b60405180910390f35b6103ed610ec2565b6040516103fa9190613c0f565b60405180910390f35b61041d60048036038101906104189190612fb8565b610f64565b60405161042a9190613e11565b60405180910390f35b61043b611023565b6040516104489190613e11565b60405180910390f35b610459611029565b6040516104669190613c0f565b60405180910390f35b61048960048036038101906104849190613123565b6110cb565b6040516104969190613bf4565b60405180910390f35b6104a761113a565b6040516104b49190613e11565b60405180910390f35b6104d760048036038101906104d291906130e7565b611140565b005b6104f360048036038101906104ee9190613123565b6112c1565b6040516105009190613e11565b60405180910390f35b610523600480360381019061051e919061306c565b61131c565b005b61053f600480360381019061053a9190613241565b61137e565b60405161054c9190613c0f565b60405180910390f35b61056f600480360381019061056a9190613241565b611437565b60405161057c9190613c0f565b60405180910390f35b61059f600480360381019061059a9190613241565b6115c2565b6040516105ac9190613e11565b60405180910390f35b6105cf60048036038101906105ca9190613200565b6115e3565b005b6105eb60048036038101906105e69190612fb8565b6116f4565b6040516105f9929190613bbd565b60405180910390f35b61060a6118c5565b6040516106179190613b9b565b60405180910390f35b61063a60048036038101906106359190612fe1565b6119d1565b6040516106479190613bf4565b60405180910390f35b6000806000837bffffffffffffffffffffffffffffffffffffffffffffffffffffffff19167bffffffffffffffffffffffffffffffffffffffffffffffffffffffff1916815260200190815260200160002060009054906101000a900460ff169050919050565b606060068054600181600116156101000203166002900480601f01602080910402602001604051908101604052809291908181526020018280546001816001161561010002031660029004801561074f5780601f106107245761010080835404028352916020019161074f565b820191906000526020600020905b81548152906001019060200180831161073257829003601f168201915b5050505050905090565b600061076482611a65565b6107a3576040517f08c379a000000000000000000000000000000000000000000000000000000000815260040161079a90613d71565b60405180910390fd5b6004600083815260200190815260200160002060009054906101000a900473ffffffffffffffffffffffffffffffffffffffff169050919050565b81600115156012600083815260200190815260200160002060009054906101000a900460ff1615151461081057600080fd5b81601060003373ffffffffffffffffffffffffffffffffffffffff1673ffffffffffffffffffffffffffffffffffffffff168152602001908152602001600020600085815260200190815260200160002054101561086d57600080fd5b610878338484611a82565b610883338484611ae5565b61088e848484611b48565b610899848484611bab565b6032601060008673ffffffffffffffffffffffffffffffffffffffff1673ffffffffffffffffffffffffffffffffffffffff1681526020019081526020016000206000858152602001908152602001600020541115610906576109056108fe84610e8b565b8585611c0e565b5b50505050565b600061091782610e8b565b90508073ffffffffffffffffffffffffffffffffffffffff168373ffffffffffffffffffffffffffffffffffffffff161415610988576040517f08c379a000000000000000000000000000000000000000000000000000000000815260040161097f90613dd1565b60405180910390fd5b8073ffffffffffffffffffffffffffffffffffffffff166109a7611e25565b73ffffffffffffffffffffffffffffffffffffffff1614806109d657506109d5816109d0611e25565b6119d1565b5b610a15576040517f08c379a0000000000000000000000000000000000000000000000000000000008152600401610a0c90613cf1565b60405180910390fd5b610a1f8383611e2d565b505050565b6000610a306002611ee6565b905090565b610a46610a40611e25565b82611efb565b610a85576040517f08c379a0000000000000000000000000000000000000000000000000000000008152600401610a7c90613df1565b60405180910390fd5b610a90838383611c0e565b505050565b6000610ae882600160008673ffffffffffffffffffffffffffffffffffffffff1673ffffffffffffffffffffffffffffffffffffffff168152602001908152602001600020611fd990919063ffffffff16565b905092915050565b6060600c6000610b009190612cc5565b60008090505b600a80549050811015610bc3576001151560126000600b8481548110610b2857fe5b9060005260206000200154815260200190815260200160002060009054906101000a900460ff1615151415610bb657600c600a8281548110610b6657fe5b90600052602060002001908060018154018082558091505060019003906000526020600020016000909190919091509080546001816001161561010002031660029004610bb4929190612ce6565b505b8080600101915050610b06565b50600c805480602002602001604051908101604052809291908181526020016000905b82821015610ca2578382906000526020600020018054600181600116156101000203166002900480601f016020809104026020016040519081016040528092919081815260200182805460018160011615610100020316600290048015610c8e5780601f10610c6357610100808354040283529160200191610c8e565b820191906000526020600020905b815481529060010190602001808311610c7157829003601f168201915b505050505081526020019060010190610be6565b50505050905090565b610cc68383836040518060200160405280600081525061131c565b505050565b601354601060003373ffffffffffffffffffffffffffffffffffffffff1673ffffffffffffffffffffffffffffffffffffffff16815260200190815260200160002060008381526020019081526020016000205414610d2957600080fd5b610d3281611ff3565b60006012600083815260200190815260200160002060006101000a81548160ff0219169083151502179055506000601060003373ffffffffffffffffffffffffffffffffffffffff1673ffffffffffffffffffffffffffffffffffffffff16815260200190815260200160002060008381526020019081526020016000208190555060006011600083815260200190815260200160002060003373ffffffffffffffffffffffffffffffffffffffff1673ffffffffffffffffffffffffffffffffffffffff1681526020019081526020016000208190555050565b600080610e2483600261212d90919063ffffffff16565b50905080915050919050565b6000601060008473ffffffffffffffffffffffffffffffffffffffff1673ffffffffffffffffffffffffffffffffffffffff168152602001908152602001600020600083815260200190815260200160002054905092915050565b6000610ebb826040518060600160405280602981526020016140cd60299139600261215c9092919063ffffffff16565b9050919050565b606060098054600181600116156101000203166002900480601f016020809104026020016040519081016040528092919081815260200182805460018160011615610100020316600290048015610f5a5780601f10610f2f57610100808354040283529160200191610f5a565b820191906000526020600020905b815481529060010190602001808311610f3d57829003601f168201915b5050505050905090565b60008073ffffffffffffffffffffffffffffffffffffffff168273ffffffffffffffffffffffffffffffffffffffff161415610fd5576040517f08c379a0000000000000000000000000000000000000000000000000000000008152600401610fcc90613d11565b60405180910390fd5b61101c600160008473ffffffffffffffffffffffffffffffffffffffff1673ffffffffffffffffffffffffffffffffffffffff16815260200190815260200160002061217b565b9050919050565b60145481565b606060078054600181600116156101000203166002900480601f0160208091040260200160405190810160405280929190818152602001828054600181600116156101000203166002900480156110c15780601f10611096576101008083540402835291602001916110c1565b820191906000526020600020905b8154815290600101906020018083116110a457829003601f168201915b5050505050905090565b600080600090506032601060008673ffffffffffffffffffffffffffffffffffffffff1673ffffffffffffffffffffffffffffffffffffffff168152602001908152602001600020600085815260200190815260200160002054111561113057600190505b8091505092915050565b60135481565b611148611e25565b73ffffffffffffffffffffffffffffffffffffffff168273ffffffffffffffffffffffffffffffffffffffff1614156111b6576040517f08c379a00000000000000000000000000000000000000000000000000000000081526004016111ad90613cb1565b60405180910390fd5b80600560006111c3611e25565b73ffffffffffffffffffffffffffffffffffffffff1673ffffffffffffffffffffffffffffffffffffffff16815260200190815260200160002060008473ffffffffffffffffffffffffffffffffffffffff1673ffffffffffffffffffffffffffffffffffffffff16815260200190815260200160002060006101000a81548160ff0219169083151502179055508173ffffffffffffffffffffffffffffffffffffffff16611270611e25565b73ffffffffffffffffffffffffffffffffffffffff167f17307eab39ab6107e8899845ad3d59bd9653f200f220920489ca2b5937696c31836040516112b59190613bf4565b60405180910390a35050565b6000601060008473ffffffffffffffffffffffffffffffffffffffff1673ffffffffffffffffffffffffffffffffffffffff168152602001908152602001600020600083815260200190815260200160002054905092915050565b61132d611327611e25565b83611efb565b61136c576040517f08c379a000000000000000000000000000000000000000000000000000000000815260040161136390613df1565b60405180910390fd5b61137884848484612190565b50505050565b600a818154811061138b57fe5b906000526020600020016000915090508054600181600116156101000203166002900480601f01602080910402602001604051908101604052809291908181526020018280546001816001161561010002031660029004801561142f5780601f106114045761010080835404028352916020019161142f565b820191906000526020600020905b81548152906001019060200180831161141257829003601f168201915b505050505081565b606061144282611a65565b611481576040517f08c379a000000000000000000000000000000000000000000000000000000000815260040161147890613db1565b60405180910390fd5b6060600860008481526020019081526020016000208054600181600116156101000203166002900480601f01602080910402602001604051908101604052809291908181526020018280546001816001161561010002031660029004801561152a5780601f106114ff5761010080835404028352916020019161152a565b820191906000526020600020905b81548152906001019060200180831161150d57829003601f168201915b5050505050905060006009805460018160011615610100020316600290049050141561155957809150506115bd565b60008151111561158e57600981604051602001611577929190613aee565b6040516020818303038152906040529150506115bd565b6009611599846121ec565b6040516020016115aa929190613aee565b6040516020818303038152906040529150505b919050565b600b81815481106115cf57fe5b906000526020600020016000915090505481565b808051906020012060001c600015156012600083815260200190815260200160002060009054906101000a900460ff1615151461161f57600080fd5b6000828051906020012060001c90506116383382612333565b600a83908060018154018082558091505060019003906000526020600020016000909190919091509080519060200190611673929190612d6d565b50600b81908060018154018082558091505060019003906000526020600020016000909190919091505560016012600083815260200190815260200160002060006101000a81548160ff0219169083151502179055506116d63382601354611b48565b6116e33382601354611bab565b600160145401601481905550505050565b606080600e60006117059190612ded565b600f60006117139190612ded565b60008090505b600b80549050811015611813576000601060008673ffffffffffffffffffffffffffffffffffffffff1673ffffffffffffffffffffffffffffffffffffffff1681526020019081526020016000206000600b848154811061177657fe5b90600052602060002001548152602001908152602001600020549050600081111561180557600e600b83815481106117aa57fe5b90600052602060002001549080600181540180825580915050600190039060005260206000200160009091909190915055600f8190806001815401808255809150506001900390600052602060002001600090919091909150555b508080600101915050611719565b50600e600f8180548060200260200160405190810160405280929190818152602001828054801561186357602002820191906000526020600020905b81548152602001906001019080831161184f575b50505050509150808054806020026020016040519081016040528092919081815260200182805480156118b557602002820191906000526020600020905b8154815260200190600101908083116118a1575b5050505050905091509150915091565b6060600d60006118d59190612ded565b60008090505b600b8054905081101561197a576001151560126000600b84815481106118fd57fe5b9060005260206000200154815260200190815260200160002060009054906101000a900460ff161515141561196d57600d600b828154811061193b57fe5b906000526020600020015490806001815401808255809150506001900390600052602060002001600090919091909150555b80806001019150506118db565b50600d8054806020026020016040519081016040528092919081815260200182805480156119c757602002820191906000526020600020905b8154815260200190600101908083116119b3575b5050505050905090565b6000600560008473ffffffffffffffffffffffffffffffffffffffff1673ffffffffffffffffffffffffffffffffffffffff16815260200190815260200160002060008373ffffffffffffffffffffffffffffffffffffffff1673ffffffffffffffffffffffffffffffffffffffff16815260200190815260200160002060009054906101000a900460ff16905092915050565b6000611a7b8260026124c190919063ffffffff16565b9050919050565b80601060008573ffffffffffffffffffffffffffffffffffffffff1673ffffffffffffffffffffffffffffffffffffffff168152602001908152602001600020600084815260200190815260200160002060008282540392505081905550505050565b806011600084815260200190815260200160002060008573ffffffffffffffffffffffffffffffffffffffff1673ffffffffffffffffffffffffffffffffffffffff16815260200190815260200160002060008282540392505081905550505050565b80601060008573ffffffffffffffffffffffffffffffffffffffff1673ffffffffffffffffffffffffffffffffffffffff168152602001908152602001600020600084815260200190815260200160002060008282540192505081905550505050565b806011600084815260200190815260200160002060008573ffffffffffffffffffffffffffffffffffffffff1673ffffffffffffffffffffffffffffffffffffffff16815260200190815260200160002060008282540192505081905550505050565b8273ffffffffffffffffffffffffffffffffffffffff16611c2e82610e8b565b73ffffffffffffffffffffffffffffffffffffffff1614611c84576040517f08c379a0000000000000000000000000000000000000000000000000000000008152600401611c7b90613d91565b60405180910390fd5b600073ffffffffffffffffffffffffffffffffffffffff168273ffffffffffffffffffffffffffffffffffffffff161415611cf4576040517f08c379a0000000000000000000000000000000000000000000000000000000008152600401611ceb90613c91565b60405180910390fd5b611cff8383836124db565b611d0a600082611e2d565b611d5b81600160008673ffffffffffffffffffffffffffffffffffffffff1673ffffffffffffffffffffffffffffffffffffffff1681526020019081526020016000206124e090919063ffffffff16565b50611dad81600160008573ffffffffffffffffffffffffffffffffffffffff1673ffffffffffffffffffffffffffffffffffffffff1681526020019081526020016000206124fa90919063ffffffff16565b50611dc4818360026125149092919063ffffffff16565b50808273ffffffffffffffffffffffffffffffffffffffff168473ffffffffffffffffffffffffffffffffffffffff167fddf252ad1be2c89b69c2b068fc378daa952ba7f163c4a11628f55a4df523b3ef60405160405180910390a4505050565b600033905090565b816004600083815260200190815260200160002060006101000a81548173ffffffffffffffffffffffffffffffffffffffff021916908373ffffffffffffffffffffffffffffffffffffffff160217905550808273ffffffffffffffffffffffffffffffffffffffff16611ea083610e8b565b73ffffffffffffffffffffffffffffffffffffffff167f8c5be1e5ebec7d5bd14f71427d1e84f3dd0314c0f7b2291e5b200ac8c7c3b92560405160405180910390a45050565b6000611ef482600001612549565b9050919050565b6000611f0682611a65565b611f45576040517f08c379a0000000000000000000000000000000000000000000000000000000008152600401611f3c90613cd1565b60405180910390fd5b6000611f5083610e8b565b90508073ffffffffffffffffffffffffffffffffffffffff168473ffffffffffffffffffffffffffffffffffffffff161480611fbf57508373ffffffffffffffffffffffffffffffffffffffff16611fa784610759565b73ffffffffffffffffffffffffffffffffffffffff16145b80611fd05750611fcf81856119d1565b5b91505092915050565b6000611fe8836000018361255a565b60001c905092915050565b6000611ffe82610e8b565b905061200c816000846124db565b612017600083611e2d565b60006008600084815260200190815260200160002080546001816001161561010002031660029004905014612066576008600083815260200190815260200160002060006120659190612e0e565b5b6120b782600160008473ffffffffffffffffffffffffffffffffffffffff1673ffffffffffffffffffffffffffffffffffffffff1681526020019081526020016000206124e090919063ffffffff16565b506120cc8260026125c790919063ffffffff16565b5081600073ffffffffffffffffffffffffffffffffffffffff168273ffffffffffffffffffffffffffffffffffffffff167fddf252ad1be2c89b69c2b068fc378daa952ba7f163c4a11628f55a4df523b3ef60405160405180910390a45050565b60008060008061214086600001866125e1565b915091508160001c8160001c8090509350935050509250929050565b600061216f846000018460001b84612664565b60001c90509392505050565b6000612189826000016126f5565b9050919050565b61219b848484611c0e565b6121a784848484612706565b6121e6576040517f08c379a00000000000000000000000000000000000000000000000000000000081526004016121dd90613c51565b60405180910390fd5b50505050565b60606000821415612234576040518060400160405280600181526020017f3000000000000000000000000000000000000000000000000000000000000000815250905061232e565b600082905060005b6000821461225e578080600101915050600a828161225657fe5b04915061223c565b60608167ffffffffffffffff8111801561227757600080fd5b506040519080825280601f01601f1916602001820160405280156122aa5781602001600182028036833780820191505090505b50905060006001830390508593505b6000841461232657600a84816122cb57fe5b0660300160f81b828280600190039350815181106122e557fe5b60200101907effffffffffffffffffffffffffffffffffffffffffffffffffffffffffffff1916908160001a905350600a848161231e57fe5b0493506122b9565b819450505050505b919050565b600073ffffffffffffffffffffffffffffffffffffffff168273ffffffffffffffffffffffffffffffffffffffff1614156123a3576040517f08c379a000000000000000000000000000000000000000000000000000000000815260040161239a90613d51565b60405180910390fd5b6123ac81611a65565b156123ec576040517f08c379a00000000000000000000000000000000000000000000000000000000081526004016123e390613c71565b60405180910390fd5b6123f8600083836124db565b61244981600160008573ffffffffffffffffffffffffffffffffffffffff1673ffffffffffffffffffffffffffffffffffffffff1681526020019081526020016000206124fa90919063ffffffff16565b50612460818360026125149092919063ffffffff16565b50808273ffffffffffffffffffffffffffffffffffffffff16600073ffffffffffffffffffffffffffffffffffffffff167fddf252ad1be2c89b69c2b068fc378daa952ba7f163c4a11628f55a4df523b3ef60405160405180910390a45050565b60006124d3836000018360001b6128e7565b905092915050565b505050565b60006124f2836000018360001b61290a565b905092915050565b600061250c836000018360001b6129f2565b905092915050565b6000612540846000018460001b8473ffffffffffffffffffffffffffffffffffffffff1660001b612a62565b90509392505050565b600081600001805490509050919050565b6000818360000180549050116125a5576040517f08c379a000000000000000000000000000000000000000000000000000000000815260040161259c90613c31565b60405180910390fd5b8260000182815481106125b457fe5b9060005260206000200154905092915050565b60006125d9836000018360001b612b3e565b905092915050565b6000808284600001805490501161262d576040517f08c379a000000000000000000000000000000000000000000000000000000000815260040161262490613d31565b60405180910390fd5b600084600001848154811061263e57fe5b906000526020600020906002020190508060000154816001015492509250509250929050565b600080846001016000858152602001908152602001600020549050600081141583906126c6576040517f08c379a00000000000000000000000000000000000000000000000000000000081526004016126bd9190613c0f565b60405180910390fd5b508460000160018203815481106126d957fe5b9060005260206000209060020201600101549150509392505050565b600081600001805490509050919050565b60006127278473ffffffffffffffffffffffffffffffffffffffff16612c57565b61273457600190506128df565b600060608573ffffffffffffffffffffffffffffffffffffffff1663150b7a0260e01b61275f611e25565b8988886040516024016127759493929190613b2d565b604051602081830303815290604052907bffffffffffffffffffffffffffffffffffffffffffffffffffffffff19166020820180517bffffffffffffffffffffffffffffffffffffffffffffffffffffffff83818316178352505050506040516127df9190613ad7565b6000604051808303816000865af19150503d806000811461281c576040519150601f19603f3d011682016040523d82523d6000602084013e612821565b606091505b5091509150816128795760008151111561283e5780518082602001fd5b6040517f08c379a000000000000000000000000000000000000000000000000000000000815260040161287090613c51565b60405180910390fd5b60008180602001905181019061288f91906131d7565b905063150b7a0260e01b7bffffffffffffffffffffffffffffffffffffffffffffffffffffffff1916817bffffffffffffffffffffffffffffffffffffffffffffffffffffffff19161493505050505b949350505050565b600080836001016000848152602001908152602001600020541415905092915050565b600080836001016000848152602001908152602001600020549050600081146129e6576000600182039050600060018660000180549050039050600086600001828154811061295557fe5b906000526020600020015490508087600001848154811061297257fe5b90600052602060002001819055506001830187600101600083815260200190815260200160002081905550866000018054806129aa57fe5b600190038181906000526020600020016000905590558660010160008781526020019081526020016000206000905560019450505050506129ec565b60009150505b92915050565b60006129fe8383612ca2565b612a57578260000182908060018154018082558091505060019003906000526020600020016000909190919091505582600001805490508360010160008481526020019081526020016000208190555060019050612a5c565b600090505b92915050565b6000808460010160008581526020019081526020016000205490506000811415612b0957846000016040518060400160405280868152602001858152509080600181540180825580915050600190039060005260206000209060020201600090919091909150600082015181600001556020820151816001015550508460000180549050856001016000868152602001908152602001600020819055506001915050612b37565b82856000016001830381548110612b1c57fe5b90600052602060002090600202016001018190555060009150505b9392505050565b60008083600101600084815260200190815260200160002054905060008114612c4b5760006001820390506000600186600001805490500390506000866000018281548110612b8957fe5b9060005260206000209060020201905080876000018481548110612ba957fe5b9060005260206000209060020201600082015481600001556001820154816001015590505060018301876001016000836000015481526020019081526020016000208190555086600001805480612bfc57fe5b6001900381819060005260206000209060020201600080820160009055600182016000905550509055866001016000878152602001908152602001600020600090556001945050505050612c51565b60009150505b92915050565b60008060007fc5d2460186f7233c927e7db2dcc703c0e500b653ca82273b7bfad8045d85a47060001b9050833f9150808214158015612c9957506000801b8214155b92505050919050565b600080836001016000848152602001908152602001600020541415905092915050565b5080546000825590600052602060002090810190612ce39190612e56565b50565b828054600181600116156101000203166002900490600052602060002090601f016020900481019282601f10612d1f5780548555612d5c565b82800160010185558215612d5c57600052602060002091601f016020900482015b82811115612d5b578254825591600101919060010190612d40565b5b509050612d699190612e82565b5090565b828054600181600116156101000203166002900490600052602060002090601f016020900481019282601f10612dae57805160ff1916838001178555612ddc565b82800160010185558215612ddc579182015b82811115612ddb578251825591602001919060010190612dc0565b5b509050612de99190612e82565b5090565b5080546000825590600052602060002090810190612e0b9190612e82565b50565b50805460018160011615610100020316600290046000825580601f10612e345750612e53565b601f016020900490600052602060002090810190612e529190612e82565b5b50565b612e7f91905b80821115612e7b5760008181612e729190612e0e565b50600101612e5c565b5090565b90565b612ea491905b80821115612ea0576000816000905550600101612e88565b5090565b90565b600081359050612eb681614070565b92915050565b600081359050612ecb81614087565b92915050565b600081359050612ee08161409e565b92915050565b600081519050612ef58161409e565b92915050565b600082601f830112612f0c57600080fd5b8135612f1f612f1a82613e59565b613e2c565b91508082526020830160208301858383011115612f3b57600080fd5b612f4683828461401d565b50505092915050565b600082601f830112612f6057600080fd5b8135612f73612f6e82613e85565b613e2c565b91508082526020830160208301858383011115612f8f57600080fd5b612f9a83828461401d565b50505092915050565b600081359050612fb2816140b5565b92915050565b600060208284031215612fca57600080fd5b6000612fd884828501612ea7565b91505092915050565b60008060408385031215612ff457600080fd5b600061300285828601612ea7565b925050602061301385828601612ea7565b9150509250929050565b60008060006060848603121561303257600080fd5b600061304086828701612ea7565b935050602061305186828701612ea7565b925050604061306286828701612fa3565b9150509250925092565b6000806000806080858703121561308257600080fd5b600061309087828801612ea7565b94505060206130a187828801612ea7565b93505060406130b287828801612fa3565b925050606085013567ffffffffffffffff8111156130cf57600080fd5b6130db87828801612efb565b91505092959194509250565b600080604083850312156130fa57600080fd5b600061310885828601612ea7565b925050602061311985828601612ebc565b9150509250929050565b6000806040838503121561313657600080fd5b600061314485828601612ea7565b925050602061315585828601612fa3565b9150509250929050565b60008060006060848603121561317457600080fd5b600061318286828701612ea7565b935050602061319386828701612fa3565b92505060406131a486828701612fa3565b9150509250925092565b6000602082840312156131c057600080fd5b60006131ce84828501612ed1565b91505092915050565b6000602082840312156131e957600080fd5b60006131f784828501612ee6565b91505092915050565b60006020828403121561321257600080fd5b600082013567ffffffffffffffff81111561322c57600080fd5b61323884828501612f4f565b91505092915050565b60006020828403121561325357600080fd5b600061326184828501612fa3565b91505092915050565b60006132768383613400565b905092915050565b600061328a8383613ab9565b60208301905092915050565b61329f81613fa9565b82525050565b6132ae81613f97565b82525050565b60006132bf82613ee6565b6132c98185613f2c565b9350836020820285016132db85613eb1565b8060005b8581101561331757848403895281516132f8858261326a565b945061330383613f12565b925060208a019950506001810190506132df565b50829750879550505050505092915050565b600061333482613ef1565b61333e8185613f3d565b935061334983613ec1565b8060005b8381101561337a578151613361888261327e565b975061336c83613f1f565b92505060018101905061334d565b5085935050505092915050565b61339081613fbb565b82525050565b60006133a182613efc565b6133ab8185613f4e565b93506133bb81856020860161402c565b6133c48161405f565b840191505092915050565b60006133da82613efc565b6133e48185613f5f565b93506133f481856020860161402c565b80840191505092915050565b600061340b82613f07565b6134158185613f6a565b935061342581856020860161402c565b61342e8161405f565b840191505092915050565b600061344482613f07565b61344e8185613f7b565b935061345e81856020860161402c565b6134678161405f565b840191505092915050565b600061347d82613f07565b6134878185613f8c565b935061349781856020860161402c565b80840191505092915050565b6000815460018116600081146134c057600181146134e557613529565b607f60028304166134d18187613f8c565b955060ff1983168652808601935050613529565b600282046134f38187613f8c565b95506134fe85613ed1565b60005b8281101561352057815481890152600182019150602081019050613501565b82880195505050505b505092915050565b600061353e602283613f7b565b91507f456e756d657261626c655365743a20696e646578206f7574206f6620626f756e60008301527f64730000000000000000000000000000000000000000000000000000000000006020830152604082019050919050565b60006135a4603283613f7b565b91507f4552433732313a207472616e7366657220746f206e6f6e20455243373231526560008301527f63656976657220696d706c656d656e74657200000000000000000000000000006020830152604082019050919050565b600061360a601c83613f7b565b91507f4552433732313a20746f6b656e20616c7265616479206d696e746564000000006000830152602082019050919050565b600061364a602483613f7b565b91507f4552433732313a207472616e7366657220746f20746865207a65726f2061646460008301527f72657373000000000000000000000000000000000000000000000000000000006020830152604082019050919050565b60006136b0601983613f7b565b91507f4552433732313a20617070726f766520746f2063616c6c6572000000000000006000830152602082019050919050565b60006136f0602c83613f7b565b91507f4552433732313a206f70657261746f7220717565727920666f72206e6f6e657860008301527f697374656e7420746f6b656e00000000000000000000000000000000000000006020830152604082019050919050565b6000613756603883613f7b565b91507f4552433732313a20617070726f76652063616c6c6572206973206e6f74206f7760008301527f6e6572206e6f7220617070726f76656420666f7220616c6c00000000000000006020830152604082019050919050565b60006137bc602a83613f7b565b91507f4552433732313a2062616c616e636520717565727920666f7220746865207a6560008301527f726f2061646472657373000000000000000000000000000000000000000000006020830152604082019050919050565b6000613822602283613f7b565b91507f456e756d657261626c654d61703a20696e646578206f7574206f6620626f756e60008301527f64730000000000000000000000000000000000000000000000000000000000006020830152604082019050919050565b6000613888602083613f7b565b91507f4552433732313a206d696e7420746f20746865207a65726f20616464726573736000830152602082019050919050565b60006138c8602c83613f7b565b91507f4552433732313a20617070726f76656420717565727920666f72206e6f6e657860008301527f697374656e7420746f6b656e00000000000000000000000000000000000000006020830152604082019050919050565b600061392e602983613f7b565b91507f4552433732313a207472616e73666572206f6620746f6b656e2074686174206960008301527f73206e6f74206f776e00000000000000000000000000000000000000000000006020830152604082019050919050565b6000613994602f83613f7b565b91507f4552433732314d657461646174613a2055524920717565727920666f72206e6f60008301527f6e6578697374656e7420746f6b656e00000000000000000000000000000000006020830152604082019050919050565b60006139fa602183613f7b565b91507f4552433732313a20617070726f76616c20746f2063757272656e74206f776e6560008301527f72000000000000000000000000000000000000000000000000000000000000006020830152604082019050919050565b6000613a60603183613f7b565b91507f4552433732313a207472616e736665722063616c6c6572206973206e6f74206f60008301527f776e6572206e6f7220617070726f7665640000000000000000000000000000006020830152604082019050919050565b613ac281614013565b82525050565b613ad181614013565b82525050565b6000613ae382846133cf565b915081905092915050565b6000613afa82856134a3565b9150613b068284613472565b91508190509392505050565b6000602082019050613b2760008301846132a5565b92915050565b6000608082019050613b426000830187613296565b613b4f60208301866132a5565b613b5c6040830185613ac8565b8181036060830152613b6e8184613396565b905095945050505050565b60006020820190508181036000830152613b9381846132b4565b905092915050565b60006020820190508181036000830152613bb58184613329565b905092915050565b60006040820190508181036000830152613bd78185613329565b90508181036020830152613beb8184613329565b90509392505050565b6000602082019050613c096000830184613387565b92915050565b60006020820190508181036000830152613c298184613439565b905092915050565b60006020820190508181036000830152613c4a81613531565b9050919050565b60006020820190508181036000830152613c6a81613597565b9050919050565b60006020820190508181036000830152613c8a816135fd565b9050919050565b60006020820190508181036000830152613caa8161363d565b9050919050565b60006020820190508181036000830152613cca816136a3565b9050919050565b60006020820190508181036000830152613cea816136e3565b9050919050565b60006020820190508181036000830152613d0a81613749565b9050919050565b60006020820190508181036000830152613d2a816137af565b9050919050565b60006020820190508181036000830152613d4a81613815565b9050919050565b60006020820190508181036000830152613d6a8161387b565b9050919050565b60006020820190508181036000830152613d8a816138bb565b9050919050565b60006020820190508181036000830152613daa81613921565b9050919050565b60006020820190508181036000830152613dca81613987565b9050919050565b60006020820190508181036000830152613dea816139ed565b9050919050565b60006020820190508181036000830152613e0a81613a53565b9050919050565b6000602082019050613e266000830184613ac8565b92915050565b6000604051905081810181811067ffffffffffffffff82111715613e4f57600080fd5b8060405250919050565b600067ffffffffffffffff821115613e7057600080fd5b601f19601f8301169050602081019050919050565b600067ffffffffffffffff821115613e9c57600080fd5b601f19601f8301169050602081019050919050565b6000819050602082019050919050565b6000819050602082019050919050565b60008190508160005260206000209050919050565b600081519050919050565b600081519050919050565b600081519050919050565b600081519050919050565b6000602082019050919050565b6000602082019050919050565b600082825260208201905092915050565b600082825260208201905092915050565b600082825260208201905092915050565b600081905092915050565b600082825260208201905092915050565b600082825260208201905092915050565b600081905092915050565b6000613fa282613ff3565b9050919050565b6000613fb482613ff3565b9050919050565b60008115159050919050565b60007fffffffff0000000000000000000000000000000000000000000000000000000082169050919050565b600073ffffffffffffffffffffffffffffffffffffffff82169050919050565b6000819050919050565b82818337600083830152505050565b60005b8381101561404a57808201518184015260208101905061402f565b83811115614059576000848401525b50505050565b6000601f19601f8301169050919050565b61407981613f97565b811461408457600080fd5b50565b61409081613fbb565b811461409b57600080fd5b50565b6140a781613fc7565b81146140b257600080fd5b50565b6140be81614013565b81146140c957600080fd5b5056fe4552433732313a206f776e657220717565727920666f72206e6f6e6578697374656e7420746f6b656ea264697066735822122036f6973ea2e0306eeab11bfb026178787a6956488c971b3616aa1d1108ca073464736f6c63430006070033",
  "immutableReferences": {},
  "source": "pragma solidity ^0.6.0;\r\npragma experimental ABIEncoderV2;\r\n\r\nimport \"../../node_modules/@openzeppelin/contracts/token/ERC721/ERC721.sol\";\r\n\r\n\r\n/**\r\n * @title ExampleDivisibleNFTs\r\n * @dev Exploring the need for a non-fungible token to have multiple owners with different shares\r\n *\r\n * @dev A 'unit' in this example is the minimum part of a token that an owner can have.\r\n *\r\n * @notice This is just an example for the Ethereum request for comments section\r\n * @notice This code is of course UNSAFE & NON SECURE\r\n */\r\n\r\ncontract DNFT is ERC721 {\r\n    // ------------------------------ Variables ------------------------------\r\n\r\n    //arrays to hold all tokenIds and locations\r\n    string[] public locations;\r\n    uint256[] public tokenIds;\r\n\r\n    //arrays to hold active locations and tokenIds, used with helper methods\r\n    string[] private activeLocations;\r\n    uint256[] private activeTokenIds;\r\n\r\n    //arrays to hold owner info\r\n    uint256[] private ownerTokens;\r\n    uint256[] private ownerShares;\r\n\r\n    // user registry \r\n    //address[] private activeUsers;\r\n\r\n    // Percentage of ownership over a token (address of owner => tokenId => %ofToken)\r\n    mapping(address => mapping(uint256 => uint256)) ownerToTokenShare;\r\n\r\n    // How much owners have of a token (tokenId => address => %ofToken)\r\n    mapping(uint256 => mapping(address => uint256)) tokenToOwnersHoldings;\r\n\r\n    // If a token has been created\r\n    mapping(uint256 => bool) mintedToken;\r\n\r\n    // Number of equal(fungible) units that constitute a token (that a token can be divised to)\r\n    uint256 public divisibility = 100; // All tokens have the same divisibility in our example\r\n\r\n    // total of managed/tracked tokens by this smart contract\r\n    uint256 public totalS;\r\n\r\n    //empty constructor for ERC 721 token\r\n    constructor() public ERC721(\"DNFT Token\", \"SYMBOL\") {}\r\n\r\n    // ------------------------------ Modifiers ------------------------------\r\n\r\n    //modifiers to ensure that tokens are not duplicated\r\n    modifier onlyNonExistentToken(uint256 _tokenId) {\r\n        require(mintedToken[_tokenId] == false);\r\n        _;\r\n    }\r\n    modifier onlyExistentToken(uint256 _tokenId) {\r\n        require(mintedToken[_tokenId] == true);\r\n        _;\r\n    }\r\n\r\n    // ------------------------------ View functions ------------------------------\r\n\r\n    // function findHash(string memory _loc) public returns(uint256 kHash){\r\n    //     uint256 id = uint256(keccak256(bytes(_loc)));\r\n    //     return id;\r\n    // }\r\n\r\n    /// @dev The balance an owner has of a token\r\n    function unitsOwnedOfAToken(address _owner, uint256 _tokenId)\r\n        public\r\n        view\r\n        returns (uint256 _balance)\r\n    {\r\n        return ownerToTokenShare[_owner][_tokenId];\r\n    }\r\n\r\n    // ------------------------------ Core public functions ------------------------------\r\n\r\n    //anybody can create a token in our example\r\n    //minting grants 100% of the token to a new owner in our example\r\n    function mint(string memory _location)\r\n        public\r\n        onlyNonExistentToken(uint256(keccak256(bytes(_location))))\r\n    {\r\n        //generate tokenId as hash of address\r\n        uint256 _tokenId = uint256(keccak256(bytes(_location)));\r\n\r\n        //mint a 721 token to the person issuing the request and use the hashed value as the ID\r\n        _mint(msg.sender, _tokenId);\r\n\r\n        //add the address and tokenIds to their respective arrays\r\n        locations.push(_location);\r\n        tokenIds.push(_tokenId);\r\n        //activeUsers.push(msg.sender);\r\n\r\n        //set the tokenId's minted status to true\r\n        mintedToken[_tokenId] = true;\r\n\r\n        //call functions to add shares of the token to the person entering the address\r\n        _addShareToNewOwner(msg.sender, _tokenId, divisibility);\r\n        _addNewOwnerHoldingsToToken(msg.sender, _tokenId, divisibility);\r\n\r\n        //track total supply of tokens\r\n        totalS = totalS + 1;\r\n    }\r\n\r\n    //transfer parts of a token to another user\r\n    function transfer(address _to, uint256 _tokenId, uint256 _units)\r\n        public\r\n        onlyExistentToken(_tokenId)\r\n    {\r\n        //require that the person transferring has the number of shares that they want to transfer\r\n        require(ownerToTokenShare[msg.sender][_tokenId] >= _units);\r\n        // TODO should check _to address to avoid losing tokens units\r\n\r\n        //call functions to remove shares from the person transferring\r\n        _removeShareFromLastOwner(msg.sender, _tokenId, _units);\r\n        _removeLastOwnerHoldingsFromToken(msg.sender, _tokenId, _units);\r\n\r\n        //call functions to add shares to the person receiving\r\n        _addShareToNewOwner(_to, _tokenId, _units);\r\n        _addNewOwnerHoldingsToToken(_to, _tokenId, _units);\r\n\r\n        //if the receiver now has greater than 50% of the shares, they become the \"owner\" of the 721 token\r\n        if (ownerToTokenShare[_to][_tokenId] > 50) {\r\n            _transfer(ownerOf(_tokenId), _to, _tokenId);\r\n        }\r\n    }\r\n\r\n    //burn tokens\r\n    function burn(uint256 _tokenId) public {\r\n        //require that the person requesting the burn owns ALL shares of a token\r\n        require(ownerToTokenShare[msg.sender][_tokenId] == divisibility);\r\n\r\n        //burn the 721 token\r\n        _burn(_tokenId);\r\n\r\n        //set the minted status of the ID to false and remove the shares from the owner\r\n        mintedToken[_tokenId] = false;\r\n        ownerToTokenShare[msg.sender][_tokenId] = 0;\r\n        tokenToOwnersHoldings[_tokenId][msg.sender] = 0;\r\n    }\r\n\r\n    // ------------------------------ Getter functions (public functions) -----------------------------\r\n    \r\n    // Get all location assets active\r\n    function allLocations() public returns(string[] memory locs) {\r\n        //clear array from previous call\r\n        delete activeLocations;\r\n\r\n        //iterate through the tokenIds and if there is a minted token, add the location to the array\r\n        for (uint i=0; i < locations.length; i++) {\r\n            if (mintedToken[tokenIds[i]] == true) {\r\n                activeLocations.push(locations[i]);\r\n            }\r\n        }\r\n        //return the array with active locations\r\n        return activeLocations;\r\n    }\r\n\r\n    // Get all tokenIds active\r\n    function allTokenIds() public returns(uint256[] memory tokens) {\r\n        //clear array from previous call\r\n        delete activeTokenIds;\r\n\r\n        //iterate through the tokenIds and if there is a minted token, add the tokenId to the array\r\n        for (uint i=0; i < tokenIds.length; i++) {\r\n            if (mintedToken[tokenIds[i]] == true) {\r\n                activeTokenIds.push(tokenIds[i]);\r\n            }\r\n        }\r\n        //return the array with active locations\r\n        return activeTokenIds;\r\n    }\r\n\r\n    // Check if an address is a majority owner\r\n    function majorityOwner(address _user, uint256 _tokenId) public view returns(bool maj) {\r\n        //initialize variable as false\r\n        bool majority = false;\r\n\r\n        //check if the user has >50% of shares, set to treu if yes\r\n        if (ownerToTokenShare[_user][_tokenId] > 50) {\r\n            majority = true;\r\n        }\r\n        //return the value\r\n        return majority;\r\n    }\r\n\r\n    // Get addresses of owners and the shares of a token\r\n    /*function tokenOwners(uint256 _tokenId) public returns(address[] memory owners, uint256[] memory shares) {\r\n        uint256 numUsers = tokenToOwnersHoldings[_tokenId].length;\r\n\r\n        address[] memory users;\r\n        uint256[] memory shrs;\r\n\r\n        for(int i = 0; i < numUsers; i++) {\r\n            if(tokenToOwnersHoldings[_tokenId][i])\r\n        }\r\n\r\n    }*/\r\n\r\n    // Get all shares for a specific owner \r\n    function allOwnerShares(address _user) public returns(uint256[] memory tokens, uint256[] memory shares) {\r\n        //clear arrays from previous calls\r\n        delete ownerTokens;\r\n        delete ownerShares;\r\n\r\n        //iterate through tokenIds for a given user and push the ID and number of shares if they exist\r\n        for (uint i=0; i < tokenIds.length; i++) {\r\n\r\n            uint256 amountOfShares = ownerToTokenShare[_user][tokenIds[i]];\r\n\r\n            if (amountOfShares > 0) {\r\n                ownerTokens.push(tokenIds[i]);\r\n                ownerShares.push(amountOfShares);\r\n            }\r\n        }\r\n\r\n        //return both the tokenIds and shares arrays\r\n        return (ownerTokens, ownerShares);\r\n\r\n    }\r\n\r\n    // Get the number of shares of a token an owner has \r\n    function ownerSharesforToken(address _user, uint256 _tokenId) public view returns(uint256 amountOfShares) {\r\n        return ownerToTokenShare[_user][_tokenId];\r\n    }\r\n\r\n    // ------------------------------ Helper functions (internal functions) ------------------------------\r\n\r\n    // Remove token units from last owner\r\n    function _removeShareFromLastOwner(\r\n        address _owner,\r\n        uint256 _tokenId,\r\n        uint256 _units\r\n    ) internal {\r\n        ownerToTokenShare[_owner][_tokenId] -= _units;\r\n    }\r\n\r\n    // Add token units to new owner\r\n    function _addShareToNewOwner(\r\n        address _owner,\r\n        uint256 _tokenId,\r\n        uint256 _units\r\n    ) internal {\r\n        ownerToTokenShare[_owner][_tokenId] += _units;\r\n    }\r\n\r\n    // Remove units from last owner\r\n    function _removeLastOwnerHoldingsFromToken(\r\n        address _owner,\r\n        uint256 _tokenId,\r\n        uint256 _units\r\n    ) internal {\r\n        tokenToOwnersHoldings[_tokenId][_owner] -= _units;\r\n    }\r\n\r\n    // Add the units to new owner\r\n    function _addNewOwnerHoldingsToToken(\r\n        address _owner,\r\n        uint256 _tokenId,\r\n        uint256 _units\r\n    ) internal {\r\n        tokenToOwnersHoldings[_tokenId][_owner] += _units;\r\n    }\r\n}\r\n",
  "sourcePath": "C:\\Users\\martinmartin\\Documents\\Ethereum\\REI\\src\\contracts\\DNFT.sol",
  "compiler": {
    "name": "solc",
    "version": "0.6.7+commit.b8d736ae.Emscripten.clang"
  },
  "schemaVersion": "3.1.0",
  "updatedAt": "2020-05-17T21:05:38.718Z",
  "networkType": "ethereum",
  "devdoc": {
    "details": "Exploring the need for a non-fungible token to have multiple owners with different shares A 'unit' in this example is the minimum part of a token that an owner can have. ",
    "methods": {
      "approve(address,uint256)": {
        "details": "Approves another address to transfer the given token ID The zero address indicates there is no approved address. There can only be one approved address per token at a given time. Can only be called by the token owner or an approved operator.",
        "params": {
          "to": "address to be approved for the given token ID",
          "tokenId": "uint256 ID of the token to be approved"
        }
      },
      "balanceOf(address)": {
        "details": "Gets the balance of the specified address.",
        "params": {
          "owner": "address to query the balance of"
        },
        "returns": {
          "_0": "uint256 representing the amount owned by the passed address"
        }
      },
      "baseURI()": {
        "details": "Returns the base URI set via {_setBaseURI}. This will be automatically added as a prefix in {tokenURI} to each token's URI, or to the token ID if no specific URI is set for that token ID."
      },
      "getApproved(uint256)": {
        "details": "Gets the approved address for a token ID, or zero if no address set Reverts if the token ID does not exist.",
        "params": {
          "tokenId": "uint256 ID of the token to query the approval of"
        },
        "returns": {
          "_0": "address currently approved for the given token ID"
        }
      },
      "isApprovedForAll(address,address)": {
        "details": "Tells whether an operator is approved by a given owner.",
        "params": {
          "operator": "operator address which you want to query the approval of",
          "owner": "owner address which you want to query the approval of"
        },
        "returns": {
          "_0": "bool whether the given operator is approved by the given owner"
        }
      },
      "name()": {
        "details": "Gets the token name.",
        "returns": {
          "_0": "string representing the token name"
        }
      },
      "ownerOf(uint256)": {
        "details": "Gets the owner of the specified token ID.",
        "params": {
          "tokenId": "uint256 ID of the token to query the owner of"
        },
        "returns": {
          "_0": "address currently marked as the owner of the given token ID"
        }
      },
      "safeTransferFrom(address,address,uint256)": {
        "details": "Safely transfers the ownership of a given token ID to another address If the target address is a contract, it must implement {IERC721Receiver-onERC721Received}, which is called upon a safe transfer, and return the magic value `bytes4(keccak256(\"onERC721Received(address,address,uint256,bytes)\"))`; otherwise, the transfer is reverted. Requires the msg.sender to be the owner, approved, or operator",
        "params": {
          "from": "current owner of the token",
          "to": "address to receive the ownership of the given token ID",
          "tokenId": "uint256 ID of the token to be transferred"
        }
      },
      "safeTransferFrom(address,address,uint256,bytes)": {
        "details": "Safely transfers the ownership of a given token ID to another address If the target address is a contract, it must implement {IERC721Receiver-onERC721Received}, which is called upon a safe transfer, and return the magic value `bytes4(keccak256(\"onERC721Received(address,address,uint256,bytes)\"))`; otherwise, the transfer is reverted. Requires the _msgSender() to be the owner, approved, or operator",
        "params": {
          "_data": "bytes data to send along with a safe transfer check",
          "from": "current owner of the token",
          "to": "address to receive the ownership of the given token ID",
          "tokenId": "uint256 ID of the token to be transferred"
        }
      },
      "setApprovalForAll(address,bool)": {
        "details": "Sets or unsets the approval of a given operator An operator is allowed to transfer all tokens of the sender on their behalf.",
        "params": {
          "approved": "representing the status of the approval to be set",
          "operator": "operator address to set the approval"
        }
      },
      "supportsInterface(bytes4)": {
        "details": "See {IERC165-supportsInterface}.     * Time complexity O(1), guaranteed to always use less than 30 000 gas."
      },
      "symbol()": {
        "details": "Gets the token symbol.",
        "returns": {
          "_0": "string representing the token symbol"
        }
      },
      "tokenByIndex(uint256)": {
        "details": "Gets the token ID at a given index of all the tokens in this contract Reverts if the index is greater or equal to the total number of tokens.",
        "params": {
          "index": "uint256 representing the index to be accessed of the tokens list"
        },
        "returns": {
          "_0": "uint256 token ID at the given index of the tokens list"
        }
      },
      "tokenOfOwnerByIndex(address,uint256)": {
        "details": "Gets the token ID at a given index of the tokens list of the requested owner.",
        "params": {
          "index": "uint256 representing the index to be accessed of the requested tokens list",
          "owner": "address owning the tokens list to be accessed"
        },
        "returns": {
          "_0": "uint256 token ID at the given index of the tokens list owned by the requested address"
        }
      },
      "tokenURI(uint256)": {
        "details": "Returns the URI for a given token ID. May return an empty string.     * If a base URI is set (via {_setBaseURI}), it is added as a prefix to the token's own URI (via {_setTokenURI}).     * If there is a base URI but no token URI, the token's ID will be used as its URI when appending it to the base URI. This pattern for autogenerated token URIs can lead to large gas savings.     * .Examples |=== |`_setBaseURI()` |`_setTokenURI()` |`tokenURI()` | \"\" | \"\" | \"\" | \"\" | \"token.uri/123\" | \"token.uri/123\" | \"token.uri/\" | \"123\" | \"token.uri/123\" | \"token.uri/\" | \"\" | \"token.uri/<tokenId>\" |===     * Requirements:     * - `tokenId` must exist."
      },
      "totalSupply()": {
        "details": "Gets the total amount of tokens stored by the contract.",
        "returns": {
          "_0": "uint256 representing the total amount of tokens"
        }
      },
      "transferFrom(address,address,uint256)": {
        "details": "Transfers the ownership of a given token ID to another address. Usage of this method is discouraged, use {safeTransferFrom} whenever possible. Requires the msg.sender to be the owner, approved, or operator.",
        "params": {
          "from": "current owner of the token",
          "to": "address to receive the ownership of the given token ID",
          "tokenId": "uint256 ID of the token to be transferred"
        }
      },
      "unitsOwnedOfAToken(address,uint256)": {
        "details": "The balance an owner has of a token"
      }
    },
    "title": "ExampleDivisibleNFTs"
  },
  "userdoc": {
    "methods": {},
    "notice": "This is just an example for the Ethereum request for comments sectionThis code is of course UNSAFE & NON SECURE"
  }
}