{
  "contractName": "DNFT",
  "abi": [
    {
      "inputs": [],
      "stateMutability": "nonpayable",
      "type": "constructor"
    },
    {
      "anonymous": false,
      "inputs": [
        {
          "indexed": true,
          "internalType": "address",
          "name": "owner",
          "type": "address"
        },
        {
          "indexed": true,
          "internalType": "address",
          "name": "approved",
          "type": "address"
        },
        {
          "indexed": true,
          "internalType": "uint256",
          "name": "tokenId",
          "type": "uint256"
        }
      ],
      "name": "Approval",
      "type": "event"
    },
    {
      "anonymous": false,
      "inputs": [
        {
          "indexed": true,
          "internalType": "address",
          "name": "owner",
          "type": "address"
        },
        {
          "indexed": true,
          "internalType": "address",
          "name": "operator",
          "type": "address"
        },
        {
          "indexed": false,
          "internalType": "bool",
          "name": "approved",
          "type": "bool"
        }
      ],
      "name": "ApprovalForAll",
      "type": "event"
    },
    {
      "anonymous": false,
      "inputs": [
        {
          "indexed": true,
          "internalType": "address",
          "name": "from",
          "type": "address"
        },
        {
          "indexed": true,
          "internalType": "address",
          "name": "to",
          "type": "address"
        },
        {
          "indexed": true,
          "internalType": "uint256",
          "name": "tokenId",
          "type": "uint256"
        }
      ],
      "name": "Transfer",
      "type": "event"
    },
    {
      "inputs": [
        {
          "internalType": "address",
          "name": "to",
          "type": "address"
        },
        {
          "internalType": "uint256",
          "name": "tokenId",
          "type": "uint256"
        }
      ],
      "name": "approve",
      "outputs": [],
      "stateMutability": "nonpayable",
      "type": "function"
    },
    {
      "inputs": [
        {
          "internalType": "address",
          "name": "owner",
          "type": "address"
        }
      ],
      "name": "balanceOf",
      "outputs": [
        {
          "internalType": "uint256",
          "name": "",
          "type": "uint256"
        }
      ],
      "stateMutability": "view",
      "type": "function",
      "constant": true
    },
    {
      "inputs": [],
      "name": "baseURI",
      "outputs": [
        {
          "internalType": "string",
          "name": "",
          "type": "string"
        }
      ],
      "stateMutability": "view",
      "type": "function",
      "constant": true
    },
    {
      "inputs": [],
      "name": "divisibility",
      "outputs": [
        {
          "internalType": "uint256",
          "name": "",
          "type": "uint256"
        }
      ],
      "stateMutability": "view",
      "type": "function",
      "constant": true
    },
    {
      "inputs": [
        {
          "internalType": "uint256",
          "name": "tokenId",
          "type": "uint256"
        }
      ],
      "name": "getApproved",
      "outputs": [
        {
          "internalType": "address",
          "name": "",
          "type": "address"
        }
      ],
      "stateMutability": "view",
      "type": "function",
      "constant": true
    },
    {
      "inputs": [
        {
          "internalType": "address",
          "name": "owner",
          "type": "address"
        },
        {
          "internalType": "address",
          "name": "operator",
          "type": "address"
        }
      ],
      "name": "isApprovedForAll",
      "outputs": [
        {
          "internalType": "bool",
          "name": "",
          "type": "bool"
        }
      ],
      "stateMutability": "view",
      "type": "function",
      "constant": true
    },
    {
      "inputs": [
        {
          "internalType": "uint256",
          "name": "",
          "type": "uint256"
        }
      ],
      "name": "locations",
      "outputs": [
        {
          "internalType": "string",
          "name": "",
          "type": "string"
        }
      ],
      "stateMutability": "view",
      "type": "function",
      "constant": true
    },
    {
      "inputs": [],
      "name": "name",
      "outputs": [
        {
          "internalType": "string",
          "name": "",
          "type": "string"
        }
      ],
      "stateMutability": "view",
      "type": "function",
      "constant": true
    },
    {
      "inputs": [
        {
          "internalType": "uint256",
          "name": "tokenId",
          "type": "uint256"
        }
      ],
      "name": "ownerOf",
      "outputs": [
        {
          "internalType": "address",
          "name": "",
          "type": "address"
        }
      ],
      "stateMutability": "view",
      "type": "function",
      "constant": true
    },
    {
      "inputs": [
        {
          "internalType": "address",
          "name": "from",
          "type": "address"
        },
        {
          "internalType": "address",
          "name": "to",
          "type": "address"
        },
        {
          "internalType": "uint256",
          "name": "tokenId",
          "type": "uint256"
        }
      ],
      "name": "safeTransferFrom",
      "outputs": [],
      "stateMutability": "nonpayable",
      "type": "function"
    },
    {
      "inputs": [
        {
          "internalType": "address",
          "name": "from",
          "type": "address"
        },
        {
          "internalType": "address",
          "name": "to",
          "type": "address"
        },
        {
          "internalType": "uint256",
          "name": "tokenId",
          "type": "uint256"
        },
        {
          "internalType": "bytes",
          "name": "_data",
          "type": "bytes"
        }
      ],
      "name": "safeTransferFrom",
      "outputs": [],
      "stateMutability": "nonpayable",
      "type": "function"
    },
    {
      "inputs": [
        {
          "internalType": "address",
          "name": "operator",
          "type": "address"
        },
        {
          "internalType": "bool",
          "name": "approved",
          "type": "bool"
        }
      ],
      "name": "setApprovalForAll",
      "outputs": [],
      "stateMutability": "nonpayable",
      "type": "function"
    },
    {
      "inputs": [
        {
          "internalType": "bytes4",
          "name": "interfaceId",
          "type": "bytes4"
        }
      ],
      "name": "supportsInterface",
      "outputs": [
        {
          "internalType": "bool",
          "name": "",
          "type": "bool"
        }
      ],
      "stateMutability": "view",
      "type": "function",
      "constant": true
    },
    {
      "inputs": [],
      "name": "symbol",
      "outputs": [
        {
          "internalType": "string",
          "name": "",
          "type": "string"
        }
      ],
      "stateMutability": "view",
      "type": "function",
      "constant": true
    },
    {
      "inputs": [
        {
          "internalType": "uint256",
          "name": "index",
          "type": "uint256"
        }
      ],
      "name": "tokenByIndex",
      "outputs": [
        {
          "internalType": "uint256",
          "name": "",
          "type": "uint256"
        }
      ],
      "stateMutability": "view",
      "type": "function",
      "constant": true
    },
    {
      "inputs": [
        {
          "internalType": "uint256",
          "name": "",
          "type": "uint256"
        }
      ],
      "name": "tokenIds",
      "outputs": [
        {
          "internalType": "uint256",
          "name": "",
          "type": "uint256"
        }
      ],
      "stateMutability": "view",
      "type": "function",
      "constant": true
    },
    {
      "inputs": [
        {
          "internalType": "address",
          "name": "owner",
          "type": "address"
        },
        {
          "internalType": "uint256",
          "name": "index",
          "type": "uint256"
        }
      ],
      "name": "tokenOfOwnerByIndex",
      "outputs": [
        {
          "internalType": "uint256",
          "name": "",
          "type": "uint256"
        }
      ],
      "stateMutability": "view",
      "type": "function",
      "constant": true
    },
    {
      "inputs": [
        {
          "internalType": "uint256",
          "name": "tokenId",
          "type": "uint256"
        }
      ],
      "name": "tokenURI",
      "outputs": [
        {
          "internalType": "string",
          "name": "",
          "type": "string"
        }
      ],
      "stateMutability": "view",
      "type": "function",
      "constant": true
    },
    {
      "inputs": [],
      "name": "totalS",
      "outputs": [
        {
          "internalType": "uint256",
          "name": "",
          "type": "uint256"
        }
      ],
      "stateMutability": "view",
      "type": "function",
      "constant": true
    },
    {
      "inputs": [],
      "name": "totalSupply",
      "outputs": [
        {
          "internalType": "uint256",
          "name": "",
          "type": "uint256"
        }
      ],
      "stateMutability": "view",
      "type": "function",
      "constant": true
    },
    {
      "inputs": [
        {
          "internalType": "address",
          "name": "from",
          "type": "address"
        },
        {
          "internalType": "address",
          "name": "to",
          "type": "address"
        },
        {
          "internalType": "uint256",
          "name": "tokenId",
          "type": "uint256"
        }
      ],
      "name": "transferFrom",
      "outputs": [],
      "stateMutability": "nonpayable",
      "type": "function"
    },
    {
      "inputs": [
        {
          "internalType": "address",
          "name": "_owner",
          "type": "address"
        },
        {
          "internalType": "uint256",
          "name": "_tokenId",
          "type": "uint256"
        }
      ],
      "name": "unitsOwnedOfAToken",
      "outputs": [
        {
          "internalType": "uint256",
          "name": "_balance",
          "type": "uint256"
        }
      ],
      "stateMutability": "view",
      "type": "function",
      "constant": true
    },
    {
      "inputs": [
        {
          "internalType": "string",
          "name": "_location",
          "type": "string"
        }
      ],
      "name": "mint",
      "outputs": [],
      "stateMutability": "nonpayable",
      "type": "function"
    },
    {
      "inputs": [
        {
          "internalType": "address",
          "name": "_to",
          "type": "address"
        },
        {
          "internalType": "uint256",
          "name": "_tokenId",
          "type": "uint256"
        },
        {
          "internalType": "uint256",
          "name": "_units",
          "type": "uint256"
        }
      ],
      "name": "transfer",
      "outputs": [],
      "stateMutability": "nonpayable",
      "type": "function"
    },
    {
      "inputs": [
        {
          "internalType": "uint256",
          "name": "_tokenId",
          "type": "uint256"
        }
      ],
      "name": "burn",
      "outputs": [],
      "stateMutability": "nonpayable",
      "type": "function"
    },
    {
      "inputs": [],
      "name": "allTokenIds",
      "outputs": [
        {
          "internalType": "uint256[]",
          "name": "tokens",
          "type": "uint256[]"
        }
      ],
      "stateMutability": "nonpayable",
      "type": "function"
    },
    {
      "inputs": [
        {
          "internalType": "address",
          "name": "_user",
          "type": "address"
        }
      ],
      "name": "allOwnerShares",
      "outputs": [
        {
          "internalType": "uint256[]",
          "name": "tokens",
          "type": "uint256[]"
        },
        {
          "internalType": "uint256[]",
          "name": "shares",
          "type": "uint256[]"
        }
      ],
      "stateMutability": "nonpayable",
      "type": "function"
    },
    {
      "inputs": [
        {
          "internalType": "address",
          "name": "_user",
          "type": "address"
        },
        {
          "internalType": "uint256",
          "name": "_tokenId",
          "type": "uint256"
        }
      ],
      "name": "ownerSharesforToken",
      "outputs": [
        {
          "internalType": "uint256",
          "name": "amountOfShares",
          "type": "uint256"
        }
      ],
      "stateMutability": "view",
      "type": "function",
      "constant": true
    }
  ],
  "bytecode": "0x608060405260646013553480156200001657600080fd5b506040518060400160405280600a81526020017f444e465420546f6b656e000000000000000000000000000000000000000000008152506040518060400160405280600681526020017f53594d424f4c00000000000000000000000000000000000000000000000000008152506200009b6301ffc9a760e01b6200011d60201b60201c565b8160069080519060200190620000b3929190620001f5565b508060079080519060200190620000cc929190620001f5565b50620000e56380ac58cd60e01b6200011d60201b60201c565b620000fd635b5e139f60e01b6200011d60201b60201c565b6200011563780e9d6360e01b6200011d60201b60201c565b505062000319565b63ffffffff60e01b817bffffffffffffffffffffffffffffffffffffffffffffffffffffffff1916141562000189576040517f08c379a00000000000000000000000000000000000000000000000000000000081526004016200018090620002e6565b60405180910390fd5b6001600080837bffffffffffffffffffffffffffffffffffffffffffffffffffffffff19167bffffffffffffffffffffffffffffffffffffffffffffffffffffffff1916815260200190815260200160002060006101000a81548160ff02191690831515021790555050565b828054600181600116156101000203166002900490600052602060002090601f016020900481019282601f106200023857805160ff191683800117855562000269565b8280016001018555821562000269579182015b82811115620002685782518255916020019190600101906200024b565b5b5090506200027891906200027c565b5090565b620002a191905b808211156200029d57600081600090555060010162000283565b5090565b90565b6000620002b3601c8362000308565b91507f4552433136353a20696e76616c696420696e74657266616365206964000000006000830152602082019050919050565b600060208201905081810360008301526200030181620002a4565b9050919050565b600082825260208201905092915050565b613c9a80620003296000396000f3fe608060405234801561001057600080fd5b50600436106101c45760003560e01c806370a08231116100f9578063b9e0db3511610097578063d85d3d2711610071578063d85d3d2714610551578063de4351131461056d578063e7619fad1461059e578063e985e9c5146105bc576101c4565b8063b9e0db35146104c1578063c87b56dd146104f1578063d58778d614610521576101c4565b80639aeab333116100d35780639aeab3331461043b578063a22cb46514610459578063aa30da7914610475578063b88d4fde146104a5576101c4565b806370a08231146103cf5780638004ace8146103ff57806395d89b411461041d576101c4565b80632f745c59116101665780634f6ccce7116101405780634f6ccce7146103215780635c680893146103515780636352211e146103815780636c0360eb146103b1576101c4565b80632f745c59146102b957806342842e0e146102e957806342966c6814610305576101c4565b8063095bcdb6116101a2578063095bcdb614610247578063095ea7b31461026357806318160ddd1461027f57806323b872dd1461029d576101c4565b806301ffc9a7146101c957806306fdde03146101f9578063081812fc14610217575b600080fd5b6101e360048036038101906101de9190612e4b565b6105ec565b6040516101f091906137ad565b60405180910390f35b610201610653565b60405161020e91906137c8565b60405180910390f35b610231600480360381019061022c9190612ede565b6106f5565b60405161023e91906136ed565b60405180910390f35b610261600480360381019061025c9190612dfc565b61077a565b005b61027d60048036038101906102789190612dc0565b6108a7565b005b6102876109bf565b60405161029491906139ca565b60405180910390f35b6102b760048036038101906102b29190612cba565b6109d0565b005b6102d360048036038101906102ce9190612dc0565b610a30565b6040516102e091906139ca565b60405180910390f35b61030360048036038101906102fe9190612cba565b610a8b565b005b61031f600480360381019061031a9190612ede565b610aab565b005b61033b60048036038101906103369190612ede565b610bed565b60405161034891906139ca565b60405180910390f35b61036b60048036038101906103669190612dc0565b610c10565b60405161037891906139ca565b60405180910390f35b61039b60048036038101906103969190612ede565b610c6b565b6040516103a891906136ed565b60405180910390f35b6103b9610ca2565b6040516103c691906137c8565b60405180910390f35b6103e960048036038101906103e49190612c55565b610d44565b6040516103f691906139ca565b60405180910390f35b610407610e03565b60405161041491906139ca565b60405180910390f35b610425610e09565b60405161043291906137c8565b60405180910390f35b610443610eab565b60405161045091906139ca565b60405180910390f35b610473600480360381019061046e9190612d84565b610eb1565b005b61048f600480360381019061048a9190612dc0565b611032565b60405161049c91906139ca565b60405180910390f35b6104bf60048036038101906104ba9190612d09565b61108d565b005b6104db60048036038101906104d69190612ede565b6110ef565b6040516104e891906137c8565b60405180910390f35b61050b60048036038101906105069190612ede565b6111a8565b60405161051891906137c8565b60405180910390f35b61053b60048036038101906105369190612ede565b611333565b60405161054891906139ca565b60405180910390f35b61056b60048036038101906105669190612e9d565b611354565b005b61058760048036038101906105829190612c55565b611465565b604051610595929190613776565b60405180910390f35b6105a6611636565b6040516105b39190613754565b60405180910390f35b6105d660048036038101906105d19190612c7e565b611742565b6040516105e391906137ad565b60405180910390f35b6000806000837bffffffffffffffffffffffffffffffffffffffffffffffffffffffff19167bffffffffffffffffffffffffffffffffffffffffffffffffffffffff1916815260200190815260200160002060009054906101000a900460ff169050919050565b606060068054600181600116156101000203166002900480601f0160208091040260200160405190810160405280929190818152602001828054600181600116156101000203166002900480156106eb5780601f106106c0576101008083540402835291602001916106eb565b820191906000526020600020905b8154815290600101906020018083116106ce57829003601f168201915b5050505050905090565b6000610700826117d6565b61073f576040517f08c379a00000000000000000000000000000000000000000000000000000000081526004016107369061392a565b60405180910390fd5b6004600083815260200190815260200160002060009054906101000a900473ffffffffffffffffffffffffffffffffffffffff169050919050565b81600115156012600083815260200190815260200160002060009054906101000a900460ff161515146107ac57600080fd5b81601060003373ffffffffffffffffffffffffffffffffffffffff1673ffffffffffffffffffffffffffffffffffffffff168152602001908152602001600020600085815260200190815260200160002054101561080957600080fd5b6108143384846117f3565b61081f338484611856565b61082a8484846118b9565b61083584848461191c565b6032601060008673ffffffffffffffffffffffffffffffffffffffff1673ffffffffffffffffffffffffffffffffffffffff168152602001908152602001600020600085815260200190815260200160002054106108a1576108a061089984610c6b565b858561197f565b5b50505050565b60006108b282610c6b565b90508073ffffffffffffffffffffffffffffffffffffffff168373ffffffffffffffffffffffffffffffffffffffff161415610923576040517f08c379a000000000000000000000000000000000000000000000000000000000815260040161091a9061398a565b60405180910390fd5b8073ffffffffffffffffffffffffffffffffffffffff16610942611b96565b73ffffffffffffffffffffffffffffffffffffffff16148061097157506109708161096b611b96565b611742565b5b6109b0576040517f08c379a00000000000000000000000000000000000000000000000000000000081526004016109a7906138aa565b60405180910390fd5b6109ba8383611b9e565b505050565b60006109cb6002611c57565b905090565b6109e16109db611b96565b82611c6c565b610a20576040517f08c379a0000000000000000000000000000000000000000000000000000000008152600401610a17906139aa565b60405180910390fd5b610a2b83838361197f565b505050565b6000610a8382600160008673ffffffffffffffffffffffffffffffffffffffff1673ffffffffffffffffffffffffffffffffffffffff168152602001908152602001600020611d4a90919063ffffffff16565b905092915050565b610aa68383836040518060200160405280600081525061108d565b505050565b601354601060003373ffffffffffffffffffffffffffffffffffffffff1673ffffffffffffffffffffffffffffffffffffffff16815260200190815260200160002060008381526020019081526020016000205414610b0957600080fd5b610b1281611d64565b60006012600083815260200190815260200160002060006101000a81548160ff0219169083151502179055506000601060003373ffffffffffffffffffffffffffffffffffffffff1673ffffffffffffffffffffffffffffffffffffffff16815260200190815260200160002060008381526020019081526020016000208190555060006011600083815260200190815260200160002060003373ffffffffffffffffffffffffffffffffffffffff1673ffffffffffffffffffffffffffffffffffffffff1681526020019081526020016000208190555050565b600080610c04836002611e9e90919063ffffffff16565b50905080915050919050565b6000601060008473ffffffffffffffffffffffffffffffffffffffff1673ffffffffffffffffffffffffffffffffffffffff168152602001908152602001600020600083815260200190815260200160002054905092915050565b6000610c9b82604051806060016040528060298152602001613c3c602991396002611ecd9092919063ffffffff16565b9050919050565b606060098054600181600116156101000203166002900480601f016020809104026020016040519081016040528092919081815260200182805460018160011615610100020316600290048015610d3a5780601f10610d0f57610100808354040283529160200191610d3a565b820191906000526020600020905b815481529060010190602001808311610d1d57829003601f168201915b5050505050905090565b60008073ffffffffffffffffffffffffffffffffffffffff168273ffffffffffffffffffffffffffffffffffffffff161415610db5576040517f08c379a0000000000000000000000000000000000000000000000000000000008152600401610dac906138ca565b60405180910390fd5b610dfc600160008473ffffffffffffffffffffffffffffffffffffffff1673ffffffffffffffffffffffffffffffffffffffff168152602001908152602001600020611eec565b9050919050565b60145481565b606060078054600181600116156101000203166002900480601f016020809104026020016040519081016040528092919081815260200182805460018160011615610100020316600290048015610ea15780601f10610e7657610100808354040283529160200191610ea1565b820191906000526020600020905b815481529060010190602001808311610e8457829003601f168201915b5050505050905090565b60135481565b610eb9611b96565b73ffffffffffffffffffffffffffffffffffffffff168273ffffffffffffffffffffffffffffffffffffffff161415610f27576040517f08c379a0000000000000000000000000000000000000000000000000000000008152600401610f1e9061386a565b60405180910390fd5b8060056000610f34611b96565b73ffffffffffffffffffffffffffffffffffffffff1673ffffffffffffffffffffffffffffffffffffffff16815260200190815260200160002060008473ffffffffffffffffffffffffffffffffffffffff1673ffffffffffffffffffffffffffffffffffffffff16815260200190815260200160002060006101000a81548160ff0219169083151502179055508173ffffffffffffffffffffffffffffffffffffffff16610fe1611b96565b73ffffffffffffffffffffffffffffffffffffffff167f17307eab39ab6107e8899845ad3d59bd9653f200f220920489ca2b5937696c318360405161102691906137ad565b60405180910390a35050565b6000601060008473ffffffffffffffffffffffffffffffffffffffff1673ffffffffffffffffffffffffffffffffffffffff168152602001908152602001600020600083815260200190815260200160002054905092915050565b61109e611098611b96565b83611c6c565b6110dd576040517f08c379a00000000000000000000000000000000000000000000000000000000081526004016110d4906139aa565b60405180910390fd5b6110e984848484611f01565b50505050565b600a81815481106110fc57fe5b906000526020600020016000915090508054600181600116156101000203166002900480601f0160208091040260200160405190810160405280929190818152602001828054600181600116156101000203166002900480156111a05780601f10611175576101008083540402835291602001916111a0565b820191906000526020600020905b81548152906001019060200180831161118357829003601f168201915b505050505081565b60606111b3826117d6565b6111f2576040517f08c379a00000000000000000000000000000000000000000000000000000000081526004016111e99061396a565b60405180910390fd5b6060600860008481526020019081526020016000208054600181600116156101000203166002900480601f01602080910402602001604051908101604052809291908181526020018280546001816001161561010002031660029004801561129b5780601f106112705761010080835404028352916020019161129b565b820191906000526020600020905b81548152906001019060200180831161127e57829003601f168201915b505050505090506000600980546001816001161561010002031660029004905014156112ca578091505061132e565b6000815111156112ff576009816040516020016112e89291906136c9565b60405160208183030381529060405291505061132e565b600961130a84611f5d565b60405160200161131b9291906136c9565b6040516020818303038152906040529150505b919050565b600b818154811061134057fe5b906000526020600020016000915090505481565b808051906020012060001c600015156012600083815260200190815260200160002060009054906101000a900460ff1615151461139057600080fd5b6000828051906020012060001c90506113a933826120a4565b600a839080600181540180825580915050600190039060005260206000200160009091909190915090805190602001906113e4929190612a36565b50600b81908060018154018082558091505060019003906000526020600020016000909190919091505560016012600083815260200190815260200160002060006101000a81548160ff02191690831515021790555061144733826013546118b9565b611454338260135461191c565b600160145401601481905550505050565b606080600e60006114769190612ab6565b600f60006114849190612ab6565b60008090505b600b80549050811015611584576000601060008673ffffffffffffffffffffffffffffffffffffffff1673ffffffffffffffffffffffffffffffffffffffff1681526020019081526020016000206000600b84815481106114e757fe5b90600052602060002001548152602001908152602001600020549050600081111561157657600e600b838154811061151b57fe5b90600052602060002001549080600181540180825580915050600190039060005260206000200160009091909190915055600f8190806001815401808255809150506001900390600052602060002001600090919091909150555b50808060010191505061148a565b50600e600f818054806020026020016040519081016040528092919081815260200182805480156115d457602002820191906000526020600020905b8154815260200190600101908083116115c0575b505050505091508080548060200260200160405190810160405280929190818152602001828054801561162657602002820191906000526020600020905b815481526020019060010190808311611612575b5050505050905091509150915091565b6060600d60006116469190612ab6565b60008090505b600b805490508110156116eb576001151560126000600b848154811061166e57fe5b9060005260206000200154815260200190815260200160002060009054906101000a900460ff16151514156116de57600d600b82815481106116ac57fe5b906000526020600020015490806001815401808255809150506001900390600052602060002001600090919091909150555b808060010191505061164c565b50600d80548060200260200160405190810160405280929190818152602001828054801561173857602002820191906000526020600020905b815481526020019060010190808311611724575b5050505050905090565b6000600560008473ffffffffffffffffffffffffffffffffffffffff1673ffffffffffffffffffffffffffffffffffffffff16815260200190815260200160002060008373ffffffffffffffffffffffffffffffffffffffff1673ffffffffffffffffffffffffffffffffffffffff16815260200190815260200160002060009054906101000a900460ff16905092915050565b60006117ec82600261223290919063ffffffff16565b9050919050565b80601060008573ffffffffffffffffffffffffffffffffffffffff1673ffffffffffffffffffffffffffffffffffffffff168152602001908152602001600020600084815260200190815260200160002060008282540392505081905550505050565b806011600084815260200190815260200160002060008573ffffffffffffffffffffffffffffffffffffffff1673ffffffffffffffffffffffffffffffffffffffff16815260200190815260200160002060008282540392505081905550505050565b80601060008573ffffffffffffffffffffffffffffffffffffffff1673ffffffffffffffffffffffffffffffffffffffff168152602001908152602001600020600084815260200190815260200160002060008282540192505081905550505050565b806011600084815260200190815260200160002060008573ffffffffffffffffffffffffffffffffffffffff1673ffffffffffffffffffffffffffffffffffffffff16815260200190815260200160002060008282540192505081905550505050565b8273ffffffffffffffffffffffffffffffffffffffff1661199f82610c6b565b73ffffffffffffffffffffffffffffffffffffffff16146119f5576040517f08c379a00000000000000000000000000000000000000000000000000000000081526004016119ec9061394a565b60405180910390fd5b600073ffffffffffffffffffffffffffffffffffffffff168273ffffffffffffffffffffffffffffffffffffffff161415611a65576040517f08c379a0000000000000000000000000000000000000000000000000000000008152600401611a5c9061384a565b60405180910390fd5b611a7083838361224c565b611a7b600082611b9e565b611acc81600160008673ffffffffffffffffffffffffffffffffffffffff1673ffffffffffffffffffffffffffffffffffffffff16815260200190815260200160002061225190919063ffffffff16565b50611b1e81600160008573ffffffffffffffffffffffffffffffffffffffff1673ffffffffffffffffffffffffffffffffffffffff16815260200190815260200160002061226b90919063ffffffff16565b50611b35818360026122859092919063ffffffff16565b50808273ffffffffffffffffffffffffffffffffffffffff168473ffffffffffffffffffffffffffffffffffffffff167fddf252ad1be2c89b69c2b068fc378daa952ba7f163c4a11628f55a4df523b3ef60405160405180910390a4505050565b600033905090565b816004600083815260200190815260200160002060006101000a81548173ffffffffffffffffffffffffffffffffffffffff021916908373ffffffffffffffffffffffffffffffffffffffff160217905550808273ffffffffffffffffffffffffffffffffffffffff16611c1183610c6b565b73ffffffffffffffffffffffffffffffffffffffff167f8c5be1e5ebec7d5bd14f71427d1e84f3dd0314c0f7b2291e5b200ac8c7c3b92560405160405180910390a45050565b6000611c65826000016122ba565b9050919050565b6000611c77826117d6565b611cb6576040517f08c379a0000000000000000000000000000000000000000000000000000000008152600401611cad9061388a565b60405180910390fd5b6000611cc183610c6b565b90508073ffffffffffffffffffffffffffffffffffffffff168473ffffffffffffffffffffffffffffffffffffffff161480611d3057508373ffffffffffffffffffffffffffffffffffffffff16611d18846106f5565b73ffffffffffffffffffffffffffffffffffffffff16145b80611d415750611d408185611742565b5b91505092915050565b6000611d5983600001836122cb565b60001c905092915050565b6000611d6f82610c6b565b9050611d7d8160008461224c565b611d88600083611b9e565b60006008600084815260200190815260200160002080546001816001161561010002031660029004905014611dd757600860008381526020019081526020016000206000611dd69190612ad7565b5b611e2882600160008473ffffffffffffffffffffffffffffffffffffffff1673ffffffffffffffffffffffffffffffffffffffff16815260200190815260200160002061225190919063ffffffff16565b50611e3d82600261233890919063ffffffff16565b5081600073ffffffffffffffffffffffffffffffffffffffff168273ffffffffffffffffffffffffffffffffffffffff167fddf252ad1be2c89b69c2b068fc378daa952ba7f163c4a11628f55a4df523b3ef60405160405180910390a45050565b600080600080611eb18660000186612352565b915091508160001c8160001c8090509350935050509250929050565b6000611ee0846000018460001b846123d5565b60001c90509392505050565b6000611efa82600001612466565b9050919050565b611f0c84848461197f565b611f1884848484612477565b611f57576040517f08c379a0000000000000000000000000000000000000000000000000000000008152600401611f4e9061380a565b60405180910390fd5b50505050565b60606000821415611fa5576040518060400160405280600181526020017f3000000000000000000000000000000000000000000000000000000000000000815250905061209f565b600082905060005b60008214611fcf578080600101915050600a8281611fc757fe5b049150611fad565b60608167ffffffffffffffff81118015611fe857600080fd5b506040519080825280601f01601f19166020018201604052801561201b5781602001600182028036833780820191505090505b50905060006001830390508593505b6000841461209757600a848161203c57fe5b0660300160f81b8282806001900393508151811061205657fe5b60200101907effffffffffffffffffffffffffffffffffffffffffffffffffffffffffffff1916908160001a905350600a848161208f57fe5b04935061202a565b819450505050505b919050565b600073ffffffffffffffffffffffffffffffffffffffff168273ffffffffffffffffffffffffffffffffffffffff161415612114576040517f08c379a000000000000000000000000000000000000000000000000000000000815260040161210b9061390a565b60405180910390fd5b61211d816117d6565b1561215d576040517f08c379a00000000000000000000000000000000000000000000000000000000081526004016121549061382a565b60405180910390fd5b6121696000838361224c565b6121ba81600160008573ffffffffffffffffffffffffffffffffffffffff1673ffffffffffffffffffffffffffffffffffffffff16815260200190815260200160002061226b90919063ffffffff16565b506121d1818360026122859092919063ffffffff16565b50808273ffffffffffffffffffffffffffffffffffffffff16600073ffffffffffffffffffffffffffffffffffffffff167fddf252ad1be2c89b69c2b068fc378daa952ba7f163c4a11628f55a4df523b3ef60405160405180910390a45050565b6000612244836000018360001b612658565b905092915050565b505050565b6000612263836000018360001b61267b565b905092915050565b600061227d836000018360001b612763565b905092915050565b60006122b1846000018460001b8473ffffffffffffffffffffffffffffffffffffffff1660001b6127d3565b90509392505050565b600081600001805490509050919050565b600081836000018054905011612316576040517f08c379a000000000000000000000000000000000000000000000000000000000815260040161230d906137ea565b60405180910390fd5b82600001828154811061232557fe5b9060005260206000200154905092915050565b600061234a836000018360001b6128af565b905092915050565b6000808284600001805490501161239e576040517f08c379a0000000000000000000000000000000000000000000000000000000008152600401612395906138ea565b60405180910390fd5b60008460000184815481106123af57fe5b906000526020600020906002020190508060000154816001015492509250509250929050565b60008084600101600085815260200190815260200160002054905060008114158390612437576040517f08c379a000000000000000000000000000000000000000000000000000000000815260040161242e91906137c8565b60405180910390fd5b5084600001600182038154811061244a57fe5b9060005260206000209060020201600101549150509392505050565b600081600001805490509050919050565b60006124988473ffffffffffffffffffffffffffffffffffffffff166129c8565b6124a55760019050612650565b600060608573ffffffffffffffffffffffffffffffffffffffff1663150b7a0260e01b6124d0611b96565b8988886040516024016124e69493929190613708565b604051602081830303815290604052907bffffffffffffffffffffffffffffffffffffffffffffffffffffffff19166020820180517bffffffffffffffffffffffffffffffffffffffffffffffffffffffff838183161783525050505060405161255091906136b2565b6000604051808303816000865af19150503d806000811461258d576040519150601f19603f3d011682016040523d82523d6000602084013e612592565b606091505b5091509150816125ea576000815111156125af5780518082602001fd5b6040517f08c379a00000000000000000000000000000000000000000000000000000000081526004016125e19061380a565b60405180910390fd5b6000818060200190518101906126009190612e74565b905063150b7a0260e01b7bffffffffffffffffffffffffffffffffffffffffffffffffffffffff1916817bffffffffffffffffffffffffffffffffffffffffffffffffffffffff19161493505050505b949350505050565b600080836001016000848152602001908152602001600020541415905092915050565b6000808360010160008481526020019081526020016000205490506000811461275757600060018203905060006001866000018054905003905060008660000182815481106126c657fe5b90600052602060002001549050808760000184815481106126e357fe5b906000526020600020018190555060018301876001016000838152602001908152602001600020819055508660000180548061271b57fe5b6001900381819060005260206000200160009055905586600101600087815260200190815260200160002060009055600194505050505061275d565b60009150505b92915050565b600061276f8383612a13565b6127c85782600001829080600181540180825580915050600190039060005260206000200160009091909190915055826000018054905083600101600084815260200190815260200160002081905550600190506127cd565b600090505b92915050565b600080846001016000858152602001908152602001600020549050600081141561287a578460000160405180604001604052808681526020018581525090806001815401808255809150506001900390600052602060002090600202016000909190919091506000820151816000015560208201518160010155505084600001805490508560010160008681526020019081526020016000208190555060019150506128a8565b8285600001600183038154811061288d57fe5b90600052602060002090600202016001018190555060009150505b9392505050565b600080836001016000848152602001908152602001600020549050600081146129bc57600060018203905060006001866000018054905003905060008660000182815481106128fa57fe5b906000526020600020906002020190508087600001848154811061291a57fe5b906000526020600020906002020160008201548160000155600182015481600101559050506001830187600101600083600001548152602001908152602001600020819055508660000180548061296d57fe5b60019003818190600052602060002090600202016000808201600090556001820160009055505090558660010160008781526020019081526020016000206000905560019450505050506129c2565b60009150505b92915050565b60008060007fc5d2460186f7233c927e7db2dcc703c0e500b653ca82273b7bfad8045d85a47060001b9050833f9150808214158015612a0a57506000801b8214155b92505050919050565b600080836001016000848152602001908152602001600020541415905092915050565b828054600181600116156101000203166002900490600052602060002090601f016020900481019282601f10612a7757805160ff1916838001178555612aa5565b82800160010185558215612aa5579182015b82811115612aa4578251825591602001919060010190612a89565b5b509050612ab29190612b1f565b5090565b5080546000825590600052602060002090810190612ad49190612b1f565b50565b50805460018160011615610100020316600290046000825580601f10612afd5750612b1c565b601f016020900490600052602060002090810190612b1b9190612b1f565b5b50565b612b4191905b80821115612b3d576000816000905550600101612b25565b5090565b90565b600081359050612b5381613bdf565b92915050565b600081359050612b6881613bf6565b92915050565b600081359050612b7d81613c0d565b92915050565b600081519050612b9281613c0d565b92915050565b600082601f830112612ba957600080fd5b8135612bbc612bb782613a12565b6139e5565b91508082526020830160208301858383011115612bd857600080fd5b612be3838284613b8c565b50505092915050565b600082601f830112612bfd57600080fd5b8135612c10612c0b82613a3e565b6139e5565b91508082526020830160208301858383011115612c2c57600080fd5b612c37838284613b8c565b50505092915050565b600081359050612c4f81613c24565b92915050565b600060208284031215612c6757600080fd5b6000612c7584828501612b44565b91505092915050565b60008060408385031215612c9157600080fd5b6000612c9f85828601612b44565b9250506020612cb085828601612b44565b9150509250929050565b600080600060608486031215612ccf57600080fd5b6000612cdd86828701612b44565b9350506020612cee86828701612b44565b9250506040612cff86828701612c40565b9150509250925092565b60008060008060808587031215612d1f57600080fd5b6000612d2d87828801612b44565b9450506020612d3e87828801612b44565b9350506040612d4f87828801612c40565b925050606085013567ffffffffffffffff811115612d6c57600080fd5b612d7887828801612b98565b91505092959194509250565b60008060408385031215612d9757600080fd5b6000612da585828601612b44565b9250506020612db685828601612b59565b9150509250929050565b60008060408385031215612dd357600080fd5b6000612de185828601612b44565b9250506020612df285828601612c40565b9150509250929050565b600080600060608486031215612e1157600080fd5b6000612e1f86828701612b44565b9350506020612e3086828701612c40565b9250506040612e4186828701612c40565b9150509250925092565b600060208284031215612e5d57600080fd5b6000612e6b84828501612b6e565b91505092915050565b600060208284031215612e8657600080fd5b6000612e9484828501612b83565b91505092915050565b600060208284031215612eaf57600080fd5b600082013567ffffffffffffffff811115612ec957600080fd5b612ed584828501612bec565b91505092915050565b600060208284031215612ef057600080fd5b6000612efe84828501612c40565b91505092915050565b6000612f138383613694565b60208301905092915050565b612f2881613b18565b82525050565b612f3781613b06565b82525050565b6000612f4882613a8f565b612f528185613abd565b9350612f5d83613a6a565b8060005b83811015612f8e578151612f758882612f07565b9750612f8083613ab0565b925050600181019050612f61565b5085935050505092915050565b612fa481613b2a565b82525050565b6000612fb582613a9a565b612fbf8185613ace565b9350612fcf818560208601613b9b565b612fd881613bce565b840191505092915050565b6000612fee82613a9a565b612ff88185613adf565b9350613008818560208601613b9b565b80840191505092915050565b600061301f82613aa5565b6130298185613aea565b9350613039818560208601613b9b565b61304281613bce565b840191505092915050565b600061305882613aa5565b6130628185613afb565b9350613072818560208601613b9b565b80840191505092915050565b60008154600181166000811461309b57600181146130c057613104565b607f60028304166130ac8187613afb565b955060ff1983168652808601935050613104565b600282046130ce8187613afb565b95506130d985613a7a565b60005b828110156130fb578154818901526001820191506020810190506130dc565b82880195505050505b505092915050565b6000613119602283613aea565b91507f456e756d657261626c655365743a20696e646578206f7574206f6620626f756e60008301527f64730000000000000000000000000000000000000000000000000000000000006020830152604082019050919050565b600061317f603283613aea565b91507f4552433732313a207472616e7366657220746f206e6f6e20455243373231526560008301527f63656976657220696d706c656d656e74657200000000000000000000000000006020830152604082019050919050565b60006131e5601c83613aea565b91507f4552433732313a20746f6b656e20616c7265616479206d696e746564000000006000830152602082019050919050565b6000613225602483613aea565b91507f4552433732313a207472616e7366657220746f20746865207a65726f2061646460008301527f72657373000000000000000000000000000000000000000000000000000000006020830152604082019050919050565b600061328b601983613aea565b91507f4552433732313a20617070726f766520746f2063616c6c6572000000000000006000830152602082019050919050565b60006132cb602c83613aea565b91507f4552433732313a206f70657261746f7220717565727920666f72206e6f6e657860008301527f697374656e7420746f6b656e00000000000000000000000000000000000000006020830152604082019050919050565b6000613331603883613aea565b91507f4552433732313a20617070726f76652063616c6c6572206973206e6f74206f7760008301527f6e6572206e6f7220617070726f76656420666f7220616c6c00000000000000006020830152604082019050919050565b6000613397602a83613aea565b91507f4552433732313a2062616c616e636520717565727920666f7220746865207a6560008301527f726f2061646472657373000000000000000000000000000000000000000000006020830152604082019050919050565b60006133fd602283613aea565b91507f456e756d657261626c654d61703a20696e646578206f7574206f6620626f756e60008301527f64730000000000000000000000000000000000000000000000000000000000006020830152604082019050919050565b6000613463602083613aea565b91507f4552433732313a206d696e7420746f20746865207a65726f20616464726573736000830152602082019050919050565b60006134a3602c83613aea565b91507f4552433732313a20617070726f76656420717565727920666f72206e6f6e657860008301527f697374656e7420746f6b656e00000000000000000000000000000000000000006020830152604082019050919050565b6000613509602983613aea565b91507f4552433732313a207472616e73666572206f6620746f6b656e2074686174206960008301527f73206e6f74206f776e00000000000000000000000000000000000000000000006020830152604082019050919050565b600061356f602f83613aea565b91507f4552433732314d657461646174613a2055524920717565727920666f72206e6f60008301527f6e6578697374656e7420746f6b656e00000000000000000000000000000000006020830152604082019050919050565b60006135d5602183613aea565b91507f4552433732313a20617070726f76616c20746f2063757272656e74206f776e6560008301527f72000000000000000000000000000000000000000000000000000000000000006020830152604082019050919050565b600061363b603183613aea565b91507f4552433732313a207472616e736665722063616c6c6572206973206e6f74206f60008301527f776e6572206e6f7220617070726f7665640000000000000000000000000000006020830152604082019050919050565b61369d81613b82565b82525050565b6136ac81613b82565b82525050565b60006136be8284612fe3565b915081905092915050565b60006136d5828561307e565b91506136e1828461304d565b91508190509392505050565b60006020820190506137026000830184612f2e565b92915050565b600060808201905061371d6000830187612f1f565b61372a6020830186612f2e565b61373760408301856136a3565b81810360608301526137498184612faa565b905095945050505050565b6000602082019050818103600083015261376e8184612f3d565b905092915050565b600060408201905081810360008301526137908185612f3d565b905081810360208301526137a48184612f3d565b90509392505050565b60006020820190506137c26000830184612f9b565b92915050565b600060208201905081810360008301526137e28184613014565b905092915050565b600060208201905081810360008301526138038161310c565b9050919050565b6000602082019050818103600083015261382381613172565b9050919050565b60006020820190508181036000830152613843816131d8565b9050919050565b6000602082019050818103600083015261386381613218565b9050919050565b600060208201905081810360008301526138838161327e565b9050919050565b600060208201905081810360008301526138a3816132be565b9050919050565b600060208201905081810360008301526138c381613324565b9050919050565b600060208201905081810360008301526138e38161338a565b9050919050565b60006020820190508181036000830152613903816133f0565b9050919050565b6000602082019050818103600083015261392381613456565b9050919050565b6000602082019050818103600083015261394381613496565b9050919050565b60006020820190508181036000830152613963816134fc565b9050919050565b6000602082019050818103600083015261398381613562565b9050919050565b600060208201905081810360008301526139a3816135c8565b9050919050565b600060208201905081810360008301526139c38161362e565b9050919050565b60006020820190506139df60008301846136a3565b92915050565b6000604051905081810181811067ffffffffffffffff82111715613a0857600080fd5b8060405250919050565b600067ffffffffffffffff821115613a2957600080fd5b601f19601f8301169050602081019050919050565b600067ffffffffffffffff821115613a5557600080fd5b601f19601f8301169050602081019050919050565b6000819050602082019050919050565b60008190508160005260206000209050919050565b600081519050919050565b600081519050919050565b600081519050919050565b6000602082019050919050565b600082825260208201905092915050565b600082825260208201905092915050565b600081905092915050565b600082825260208201905092915050565b600081905092915050565b6000613b1182613b62565b9050919050565b6000613b2382613b62565b9050919050565b60008115159050919050565b60007fffffffff0000000000000000000000000000000000000000000000000000000082169050919050565b600073ffffffffffffffffffffffffffffffffffffffff82169050919050565b6000819050919050565b82818337600083830152505050565b60005b83811015613bb9578082015181840152602081019050613b9e565b83811115613bc8576000848401525b50505050565b6000601f19601f8301169050919050565b613be881613b06565b8114613bf357600080fd5b50565b613bff81613b2a565b8114613c0a57600080fd5b50565b613c1681613b36565b8114613c2157600080fd5b50565b613c2d81613b82565b8114613c3857600080fd5b5056fe4552433732313a206f776e657220717565727920666f72206e6f6e6578697374656e7420746f6b656ea26469706673582212207f682f05b69aa99dc8ffe25972ced0ffdf5e35ef7ce46b755315b8d8d64dba3b64736f6c63430006070033",
  "immutableReferences": {},
  "source": "pragma solidity ^0.6.0;\r\npragma experimental ABIEncoderV2;\r\n\r\nimport \"../../node_modules/@openzeppelin/contracts/token/ERC721/ERC721.sol\";\r\n\r\n\r\n/**\r\n * @title ExampleDivisibleNFTs\r\n * @dev Exploring the need for a non-fungible token to have multiple owners with different shares\r\n *\r\n * @dev A 'unit' in this example is the minimum part of a token that an owner can have.\r\n *\r\n * @notice This is just an example for the Ethereum request for comments section\r\n * @notice This code is of course UNSAFE & NON SECURE\r\n */\r\n\r\ncontract DNFT is ERC721 {\r\n    // ------------------------------ Variables ------------------------------\r\n\r\n    string[] public locations;\r\n    uint256[] public tokenIds;\r\n\r\n    string[] private activeLocations;\r\n    uint256[] private activeTokenIds;\r\n\r\n    uint256[] private ownerTokens;\r\n    uint256[] private ownerShares;\r\n\r\n    // user registry \r\n    //address[] private activeUsers;\r\n\r\n    // Percentage of ownership over a token (address of owner => tokenId => %ofToken)\r\n    mapping(address => mapping(uint256 => uint256)) ownerToTokenShare;\r\n\r\n    // How much owners have of a token (tokenId => address => %ofToken)\r\n    mapping(uint256 => mapping(address => uint256)) tokenToOwnersHoldings;\r\n\r\n    // If a token has been created\r\n    mapping(uint256 => bool) mintedToken;\r\n\r\n    // Number of equal(fungible) units that constitute a token (that a token can be divised to)\r\n    uint256 public divisibility = 100; // All tokens have the same divisibility in our example\r\n\r\n    // total of managed/tracked tokens by this smart contract\r\n    uint256 public totalS;\r\n\r\n    constructor() public ERC721(\"DNFT Token\", \"SYMBOL\") {}\r\n\r\n    // ------------------------------ Modifiers ------------------------------\r\n\r\n    modifier onlyNonExistentToken(uint256 _tokenId) {\r\n        require(mintedToken[_tokenId] == false);\r\n        _;\r\n    }\r\n\r\n    modifier onlyExistentToken(uint256 _tokenId) {\r\n        require(mintedToken[_tokenId] == true);\r\n        _;\r\n    }\r\n\r\n    // ------------------------------ View functions ------------------------------\r\n\r\n    // function findHash(string memory _loc) public returns(uint256 kHash){\r\n    //     uint256 id = uint256(keccak256(bytes(_loc)));\r\n    //     return id;\r\n    // }\r\n\r\n    /// @dev The balance an owner have of a token\r\n    function unitsOwnedOfAToken(address _owner, uint256 _tokenId)\r\n        public\r\n        view\r\n        returns (uint256 _balance)\r\n    {\r\n        return ownerToTokenShare[_owner][_tokenId];\r\n    }\r\n\r\n    // ------------------------------ Core public functions ------------------------------\r\n\r\n    /// @dev Anybody can create a token in our example\r\n    /// @notice Minting grants 100% of the token to a new owner in our example\r\n    function mint(string memory _location)\r\n        public\r\n        onlyNonExistentToken(uint256(keccak256(bytes(_location))))\r\n    {\r\n        uint256 _tokenId = uint256(keccak256(bytes(_location)));\r\n\r\n        _mint(msg.sender, _tokenId);\r\n\r\n        locations.push(_location);\r\n        tokenIds.push(_tokenId);\r\n        //activeUsers.push(msg.sender);\r\n\r\n        mintedToken[_tokenId] = true;\r\n\r\n        _addShareToNewOwner(msg.sender, _tokenId, divisibility);\r\n        _addNewOwnerHoldingsToToken(msg.sender, _tokenId, divisibility);\r\n\r\n        totalS = totalS + 1;\r\n\r\n        //Minted(_owner, _tokenId); // emit event\r\n    }\r\n\r\n    /// @dev transfer parts of a token to another user\r\n    function transfer(address _to, uint256 _tokenId, uint256 _units)\r\n        public\r\n        onlyExistentToken(_tokenId)\r\n    {\r\n        require(ownerToTokenShare[msg.sender][_tokenId] >= _units);\r\n        // TODO should check _to address to avoid losing tokens units\r\n\r\n        _removeShareFromLastOwner(msg.sender, _tokenId, _units);\r\n        _removeLastOwnerHoldingsFromToken(msg.sender, _tokenId, _units);\r\n\r\n        _addShareToNewOwner(_to, _tokenId, _units);\r\n        _addNewOwnerHoldingsToToken(_to, _tokenId, _units);\r\n\r\n        if (ownerToTokenShare[_to][_tokenId] >= 50) {\r\n            _transfer(ownerOf(_tokenId), _to, _tokenId);\r\n        }\r\n\r\n        //Transfer(msg.sender, _to, _tokenId, _units); // emit event\r\n    }\r\n\r\n    function burn(uint256 _tokenId) public {\r\n        require(ownerToTokenShare[msg.sender][_tokenId] == divisibility);\r\n\r\n        _burn(_tokenId);\r\n        mintedToken[_tokenId] = false;\r\n        ownerToTokenShare[msg.sender][_tokenId] = 0;\r\n        tokenToOwnersHoldings[_tokenId][msg.sender] = 0;\r\n    }\r\n\r\n    // ------------------------------ Getter functions (public functions) -----------------------------\r\n    \r\n    // Get all location assets active\r\n    /* TODO: TBD WHETHER WILL IMPLEMENT OR TEST\r\n    function allLocations() public returns(string[] memory locations) {\r\n        delete activeLocations;\r\n\r\n        for (uint i=0; i < locations.length; i++) {\r\n            if (mintedToken[tokenIds[i]] == true) {\r\n                activeLocations.push(locations[i]);\r\n            }\r\n        }\r\n        return activeLocations;\r\n    }*/\r\n\r\n    // Get all tokenIds active\r\n    function allTokenIds() public returns(uint256[] memory tokens) {\r\n        delete activeTokenIds;\r\n\r\n        for (uint i=0; i < tokenIds.length; i++) {\r\n            if (mintedToken[tokenIds[i]] == true) {\r\n                activeTokenIds.push(tokenIds[i]);\r\n            }\r\n        }\r\n        return activeTokenIds;\r\n    }\r\n\r\n    // Check if an address is a majority owner\r\n    /*TODO: IMPLEMENT MAYBE AND TEST??\r\n    function majorityOwner(address _user, uint256 _tokenId) public view returns(bool majority) {\r\n        bool majority = false;\r\n\r\n        if (ownerToTokenShare[_user][_tokenId] > 50) {\r\n            majority = true;\r\n        }\r\n        \r\n        return majority;\r\n    }*/\r\n\r\n    // Get addresses of owners and the shares of a token\r\n    /*function tokenOwners(uint256 _tokenId) public returns(address[] memory owners, uint256[] memory shares) {\r\n        uint256 numUsers = tokenToOwnersHoldings[_tokenId].length;\r\n\r\n        address[] memory users;\r\n        uint256[] memory shrs;\r\n\r\n        for(int i = 0; i < numUsers; i++) {\r\n            if(tokenToOwnersHoldings[_tokenId][i])\r\n        }\r\n\r\n    }*/\r\n\r\n    // Get all shares for a specific owner \r\n    function allOwnerShares(address _user) public returns(uint256[] memory tokens, uint256[] memory shares) {\r\n        \r\n        delete ownerTokens;\r\n        delete ownerShares;\r\n\r\n        for (uint i=0; i < tokenIds.length; i++) {\r\n\r\n            uint256 amountOfShares = ownerToTokenShare[_user][tokenIds[i]];\r\n\r\n            if (amountOfShares > 0) {\r\n                ownerTokens.push(tokenIds[i]);\r\n                ownerShares.push(amountOfShares);\r\n            }\r\n        }\r\n\r\n        return (ownerTokens, ownerShares);\r\n\r\n    }\r\n\r\n    // Get the number of shares of a token an owner has \r\n    function ownerSharesforToken(address _user, uint256 _tokenId) public view returns(uint256 amountOfShares) {\r\n        return ownerToTokenShare[_user][_tokenId];\r\n    }\r\n\r\n    // ------------------------------ Helper functions (internal functions) ------------------------------\r\n\r\n    // Remove token units from last owner\r\n    function _removeShareFromLastOwner(\r\n        address _owner,\r\n        uint256 _tokenId,\r\n        uint256 _units\r\n    ) internal {\r\n        ownerToTokenShare[_owner][_tokenId] -= _units;\r\n    }\r\n\r\n    // Add token units to new owner\r\n    function _addShareToNewOwner(\r\n        address _owner,\r\n        uint256 _tokenId,\r\n        uint256 _units\r\n    ) internal {\r\n        ownerToTokenShare[_owner][_tokenId] += _units;\r\n    }\r\n\r\n    // Remove units from last owner\r\n    function _removeLastOwnerHoldingsFromToken(\r\n        address _owner,\r\n        uint256 _tokenId,\r\n        uint256 _units\r\n    ) internal {\r\n        tokenToOwnersHoldings[_tokenId][_owner] -= _units;\r\n    }\r\n\r\n    // Add the units to new owner\r\n    function _addNewOwnerHoldingsToToken(\r\n        address _owner,\r\n        uint256 _tokenId,\r\n        uint256 _units\r\n    ) internal {\r\n        tokenToOwnersHoldings[_tokenId][_owner] += _units;\r\n    }\r\n}\r\n",
  "sourcePath": "C:\\Users\\martinmartin\\Documents\\Ethereum\\REI\\src\\contracts\\DNFT.sol",
  "compiler": {
    "name": "solc",
    "version": "0.6.7+commit.b8d736ae.Emscripten.clang"
  },
  "schemaVersion": "3.1.0",
  "updatedAt": "2020-05-15T19:46:20.018Z",
  "networkType": "ethereum",
  "devdoc": {
    "details": "Exploring the need for a non-fungible token to have multiple owners with different shares A 'unit' in this example is the minimum part of a token that an owner can have. ",
    "methods": {
      "approve(address,uint256)": {
        "details": "Approves another address to transfer the given token ID The zero address indicates there is no approved address. There can only be one approved address per token at a given time. Can only be called by the token owner or an approved operator.",
        "params": {
          "to": "address to be approved for the given token ID",
          "tokenId": "uint256 ID of the token to be approved"
        }
      },
      "balanceOf(address)": {
        "details": "Gets the balance of the specified address.",
        "params": {
          "owner": "address to query the balance of"
        },
        "returns": {
          "_0": "uint256 representing the amount owned by the passed address"
        }
      },
      "baseURI()": {
        "details": "Returns the base URI set via {_setBaseURI}. This will be automatically added as a prefix in {tokenURI} to each token's URI, or to the token ID if no specific URI is set for that token ID."
      },
      "getApproved(uint256)": {
        "details": "Gets the approved address for a token ID, or zero if no address set Reverts if the token ID does not exist.",
        "params": {
          "tokenId": "uint256 ID of the token to query the approval of"
        },
        "returns": {
          "_0": "address currently approved for the given token ID"
        }
      },
      "isApprovedForAll(address,address)": {
        "details": "Tells whether an operator is approved by a given owner.",
        "params": {
          "operator": "operator address which you want to query the approval of",
          "owner": "owner address which you want to query the approval of"
        },
        "returns": {
          "_0": "bool whether the given operator is approved by the given owner"
        }
      },
      "mint(string)": {
        "details": "Anybody can create a token in our example"
      },
      "name()": {
        "details": "Gets the token name.",
        "returns": {
          "_0": "string representing the token name"
        }
      },
      "ownerOf(uint256)": {
        "details": "Gets the owner of the specified token ID.",
        "params": {
          "tokenId": "uint256 ID of the token to query the owner of"
        },
        "returns": {
          "_0": "address currently marked as the owner of the given token ID"
        }
      },
      "safeTransferFrom(address,address,uint256)": {
        "details": "Safely transfers the ownership of a given token ID to another address If the target address is a contract, it must implement {IERC721Receiver-onERC721Received}, which is called upon a safe transfer, and return the magic value `bytes4(keccak256(\"onERC721Received(address,address,uint256,bytes)\"))`; otherwise, the transfer is reverted. Requires the msg.sender to be the owner, approved, or operator",
        "params": {
          "from": "current owner of the token",
          "to": "address to receive the ownership of the given token ID",
          "tokenId": "uint256 ID of the token to be transferred"
        }
      },
      "safeTransferFrom(address,address,uint256,bytes)": {
        "details": "Safely transfers the ownership of a given token ID to another address If the target address is a contract, it must implement {IERC721Receiver-onERC721Received}, which is called upon a safe transfer, and return the magic value `bytes4(keccak256(\"onERC721Received(address,address,uint256,bytes)\"))`; otherwise, the transfer is reverted. Requires the _msgSender() to be the owner, approved, or operator",
        "params": {
          "_data": "bytes data to send along with a safe transfer check",
          "from": "current owner of the token",
          "to": "address to receive the ownership of the given token ID",
          "tokenId": "uint256 ID of the token to be transferred"
        }
      },
      "setApprovalForAll(address,bool)": {
        "details": "Sets or unsets the approval of a given operator An operator is allowed to transfer all tokens of the sender on their behalf.",
        "params": {
          "approved": "representing the status of the approval to be set",
          "operator": "operator address to set the approval"
        }
      },
      "supportsInterface(bytes4)": {
        "details": "See {IERC165-supportsInterface}.     * Time complexity O(1), guaranteed to always use less than 30 000 gas."
      },
      "symbol()": {
        "details": "Gets the token symbol.",
        "returns": {
          "_0": "string representing the token symbol"
        }
      },
      "tokenByIndex(uint256)": {
        "details": "Gets the token ID at a given index of all the tokens in this contract Reverts if the index is greater or equal to the total number of tokens.",
        "params": {
          "index": "uint256 representing the index to be accessed of the tokens list"
        },
        "returns": {
          "_0": "uint256 token ID at the given index of the tokens list"
        }
      },
      "tokenOfOwnerByIndex(address,uint256)": {
        "details": "Gets the token ID at a given index of the tokens list of the requested owner.",
        "params": {
          "index": "uint256 representing the index to be accessed of the requested tokens list",
          "owner": "address owning the tokens list to be accessed"
        },
        "returns": {
          "_0": "uint256 token ID at the given index of the tokens list owned by the requested address"
        }
      },
      "tokenURI(uint256)": {
        "details": "Returns the URI for a given token ID. May return an empty string.     * If a base URI is set (via {_setBaseURI}), it is added as a prefix to the token's own URI (via {_setTokenURI}).     * If there is a base URI but no token URI, the token's ID will be used as its URI when appending it to the base URI. This pattern for autogenerated token URIs can lead to large gas savings.     * .Examples |=== |`_setBaseURI()` |`_setTokenURI()` |`tokenURI()` | \"\" | \"\" | \"\" | \"\" | \"token.uri/123\" | \"token.uri/123\" | \"token.uri/\" | \"123\" | \"token.uri/123\" | \"token.uri/\" | \"\" | \"token.uri/<tokenId>\" |===     * Requirements:     * - `tokenId` must exist."
      },
      "totalSupply()": {
        "details": "Gets the total amount of tokens stored by the contract.",
        "returns": {
          "_0": "uint256 representing the total amount of tokens"
        }
      },
      "transfer(address,uint256,uint256)": {
        "details": "transfer parts of a token to another user"
      },
      "transferFrom(address,address,uint256)": {
        "details": "Transfers the ownership of a given token ID to another address. Usage of this method is discouraged, use {safeTransferFrom} whenever possible. Requires the msg.sender to be the owner, approved, or operator.",
        "params": {
          "from": "current owner of the token",
          "to": "address to receive the ownership of the given token ID",
          "tokenId": "uint256 ID of the token to be transferred"
        }
      },
      "unitsOwnedOfAToken(address,uint256)": {
        "details": "The balance an owner have of a token"
      }
    },
    "title": "ExampleDivisibleNFTs"
  },
  "userdoc": {
    "methods": {
      "mint(string)": {
        "notice": "Minting grants 100% of the token to a new owner in our example"
      }
    },
    "notice": "This is just an example for the Ethereum request for comments sectionThis code is of course UNSAFE & NON SECURE"
  }
}